01REMESSA01COBRANCA       00000000000004732947AUX EMPREENDIMENTOS IMOBILIARI237BRADESCO       300315        MX0008876                                                                                                                                                                                                                                                                                     000001
1                   00090002500028185325186      08689           2100000044325186600000000002N              01443251863230041500000000660000000000001N280315000000000000000210000000000000000000000000000000000000000000000200036625229857DANILO HENRIQUE TREVISAN                 RUA ANTONIO GALERA LOPES, 3341                     15503024Ref.:QUADRA E-25                                            000002
2APOS O VENCIMENTO, PAGAVEL SOMENTE NO BANCO BRADESCO.                                                                                                                                                                                                                                                                                                                        0090002500028185000443251866000003
1                   00090002500028185325187      08689           2100000044325187400000000002N              01443251873230051500000000660000000000001N280315000000000000000210000000000000000000000000000000000000000000000200036625229857DANILO HENRIQUE TREVISAN                 RUA ANTONIO GALERA LOPES, 3341                     15503024Ref.:QUADRA E-25                                            000004
2APOS O VENCIMENTO, PAGAVEL SOMENTE NO BANCO BRADESCO.                                                                                                                                                                                                                                                                                                                        0090002500028185000443251874000005
1                   00090002500028185325188      08689           2100000044325188200000000002N              01443251883230061500000000660000000000001N280315000000000000000210000000000000000000000000000000000000000000000200036625229857DANILO HENRIQUE TREVISAN                 RUA ANTONIO GALERA LOPES, 3341                     15503024Ref.:QUADRA E-25                                            000006
2APOS O VENCIMENTO, PAGAVEL SOMENTE NO BANCO BRADESCO.                                                                                                                                                                                                                                                                                                                        0090002500028185000443251882000007
1                   00090002500028185325189      08689           2100000044325189000000000002N              01443251893230071500000000660000000000001N280315000000000000000210000000000000000000000000000000000000000000000200036625229857DANILO HENRIQUE TREVISAN                 RUA ANTONIO GALERA LOPES, 3341                     15503024Ref.:QUADRA E-25                                            000008
2APOS O VENCIMENTO, PAGAVEL SOMENTE NO BANCO BRADESCO.                                                                                                                                                                                                                                                                                                                        0090002500028185000443251890000009
1                   00090002500028185325190      08689           2100000044325190400000000002N              01443251903230081500000000660000000000001N280315000000000000000210000000000000000000000000000000000000000000000200036625229857DANILO HENRIQUE TREVISAN                 RUA ANTONIO GALERA LOPES, 3341                     15503024Ref.:QUADRA E-25                                            000010
2APOS O VENCIMENTO, PAGAVEL SOMENTE NO BANCO BRADESCO.                                                                                                                                                                                                                                                                                                                        0090002500028185000443251904000011
1                   00090002500028185325191      08689           2100000044325191200000000002N              01443251913230091500000000358750000000001N280315000000000000000110000000000000000000000000000000000000000000000200036625229857DANILO HENRIQUE TREVISAN                 RUA ANTONIO GALERA LOPES, 3341                     15503024Ref.:QUADRA E-25                                            000012
2APOS O VENCIMENTO, PAGAVEL SOMENTE NO BANCO BRADESCO.                                                                                                                                                                                                                                                                                                                        0090002500028185000443251912000013
1                   00090002500028185325192      08689           2100000044325192000000000002N              01443251923230101500000000358750000000001N280315000000000000000110000000000000000000000000000000000000000000000200036625229857DANILO HENRIQUE TREVISAN                 RUA ANTONIO GALERA LOPES, 3341                     15503024Ref.:QUADRA E-25                                            000014
2APOS O VENCIMENTO, PAGAVEL SOMENTE NO BANCO BRADESCO.                                                                                                                                                                                                                                                                                                                        0090002500028185000443251920000015
1                   00090002500028185325193      08689           2100000044325193900000000002N              01443251933230111500000000358750000000001N280315000000000000000110000000000000000000000000000000000000000000000200036625229857DANILO HENRIQUE TREVISAN                 RUA ANTONIO GALERA LOPES, 3341                     15503024Ref.:QUADRA E-25                                            000016
2APOS O VENCIMENTO, PAGAVEL SOMENTE NO BANCO BRADESCO.                                                                                                                                                                                                                                                                                                                        0090002500028185000443251939000017
1                   00090002500028185325194      08689           2100000044325194700000000002N              01443251943230121500000000358750000000001N280315000000000000000110000000000000000000000000000000000000000000000200036625229857DANILO HENRIQUE TREVISAN                 RUA ANTONIO GALERA LOPES, 3341                     15503024Ref.:QUADRA E-25                                            000018
2APOS O VENCIMENTO, PAGAVEL SOMENTE NO BANCO BRADESCO.                                                                                                                                                                                                                                                                                                                        0090002500028185000443251947000019
1                   00090002500028185325195      08689           2100000044325195500000000002N              01443251953230011600000000358750000000001N280315000000000000000110000000000000000000000000000000000000000000000200036625229857DANILO HENRIQUE TREVISAN                 RUA ANTONIO GALERA LOPES, 3341                     15503024Ref.:QUADRA E-25                                            000020
2APOS O VENCIMENTO, PAGAVEL SOMENTE NO BANCO BRADESCO.                                                                                                                                                                                                                                                                                                                        0090002500028185000443251955000021
1                   00090002500028185325196      08689           2100000044325196300000000002N              01443251963229021600000000358750000000001N280315000000000000000110000000000000000000000000000000000000000000000200036625229857DANILO HENRIQUE TREVISAN                 RUA ANTONIO GALERA LOPES, 3341                     15503024Ref.:QUADRA E-25                                            000022
2APOS O VENCIMENTO, PAGAVEL SOMENTE NO BANCO BRADESCO.                                                                                                                                                                                                                                                                                                                        0090002500028185000443251963000023
1                   00090002500028185325186      09998           2100000044325186600000000002N              01443251863230041500000000660000000000001N280315000000000000000210000000000000000000000000000000000000000000000200036625229857DANILO HENRIQUE TREVISAN                 RUA ANTONIO GALERA LOPES, 3341                     15503024Ref.:QUADRA E-25                                            000002
2APOS O VENCIMENTO, PAGAVEL SOMENTE NO BANCO BRADESCO.                                                                                                                                                                                                                                                                                                                        0090002500028185000443251866000003
1                   00090002500028185327578      08690           2100000065327578400000000002N              01653275783210051500000001075000000000001N300315000000000000000350000000000000000000000000000000000000000000000100007068277837ELIZABETE APARECIDA ANUNCIO             RUA ARLINDO RODRIGUES DA MATA, 1694                 15615000Ref.:QUADRA E-29                                            000024
2APOS O VENCIMENTO, PAGAVEL SOMENTE NO BANCO BRADESCO.                                                                                                                                                                                                                                                                                                                        0090002500028185000653275784000025
1                   00090002500028185327579      08690           2100000065327579200000000002N              01653275793210061500000001075000000000001N300315000000000000000350000000000000000000000000000000000000000000000100007068277837ELIZABETE APARECIDA ANUNCIO             RUA ARLINDO RODRIGUES DA MATA, 1694                 15615000Ref.:QUADRA E-29                                            000026
2APOS O VENCIMENTO, PAGAVEL SOMENTE NO BANCO BRADESCO.                                                                                                                                                                                                                                                                                                                        0090002500028185000653275792000027
1                   00090002500028185327580      08690           2100000065327580600000000002N              01653275803210071500000001075000000000001N300315000000000000000350000000000000000000000000000000000000000000000100007068277837ELIZABETE APARECIDA ANUNCIO             RUA ARLINDO RODRIGUES DA MATA, 1694                 15615000Ref.:QUADRA E-29                                            000028
2APOS O VENCIMENTO, PAGAVEL SOMENTE NO BANCO BRADESCO.                                                                                                                                                                                                                                                                                                                        0090002500028185000653275806000029
1                   00090002500028185327581      08690           2100000065327581400000000002N              01653275813210081500000000459380000000001N300315000000000000000150000000000000000000000000000000000000000000000100007068277837ELIZABETE APARECIDA ANUNCIO             RUA ARLINDO RODRIGUES DA MATA, 1694                 15615000Ref.:QUADRA E-29                                            000030
2APOS O VENCIMENTO, PAGAVEL SOMENTE NO BANCO BRADESCO.                                                                                                                                                                                                                                                                                                                        0090002500028185000653275814000031
1                   00090002500028185327582      08690           2100000065327582200000000002N              01653275823210091500000000459380000000001N300315000000000000000150000000000000000000000000000000000000000000000100007068277837ELIZABETE APARECIDA ANUNCIO             RUA ARLINDO RODRIGUES DA MATA, 1694                 15615000Ref.:QUADRA E-29                                            000032
2APOS O VENCIMENTO, PAGAVEL SOMENTE NO BANCO BRADESCO.                                                                                                                                                                                                                                                                                                                        0090002500028185000653275822000033
1                   00090002500028185327583      08690           2100000065327583000000000002N              01653275833210101500000000459380000000001N300315000000000000000150000000000000000000000000000000000000000000000100007068277837ELIZABETE APARECIDA ANUNCIO             RUA ARLINDO RODRIGUES DA MATA, 1694                 15615000Ref.:QUADRA E-29                                            000034
2APOS O VENCIMENTO, PAGAVEL SOMENTE NO BANCO BRADESCO.                                                                                                                                                                                                                                                                                                                        0090002500028185000653275830000035
1                   00090002500028185327584      08690           2100000065327584900000000002N              01653275843210111500000000459380000000001N300315000000000000000150000000000000000000000000000000000000000000000100007068277837ELIZABETE APARECIDA ANUNCIO             RUA ARLINDO RODRIGUES DA MATA, 1694                 15615000Ref.:QUADRA E-29                                            000036
2APOS O VENCIMENTO, PAGAVEL SOMENTE NO BANCO BRADESCO.                                                                                                                                                                                                                                                                                                                        0090002500028185000653275849000037
1                   00090002500028185327585      08690           2100000065327585700000000002N              01653275853210121500000000459380000000001N300315000000000000000150000000000000000000000000000000000000000000000100007068277837ELIZABETE APARECIDA ANUNCIO             RUA ARLINDO RODRIGUES DA MATA, 1694                 15615000Ref.:QUADRA E-29                                            000038
2APOS O VENCIMENTO, PAGAVEL SOMENTE NO BANCO BRADESCO.                                                                                                                                                                                                                                                                                                                        0090002500028185000653275857000039
1                   00090002500028185327586      08690           2100000065327586500000000002N              01653275863210011600000000459380000000001N300315000000000000000150000000000000000000000000000000000000000000000100007068277837ELIZABETE APARECIDA ANUNCIO             RUA ARLINDO RODRIGUES DA MATA, 1694                 15615000Ref.:QUADRA E-29                                            000040
2APOS O VENCIMENTO, PAGAVEL SOMENTE NO BANCO BRADESCO.                                                                                                                                                                                                                                                                                                                        0090002500028185000653275865000041
1                   00090002500028185326601      08691           2100000052326601500000000002N              01523266013205051500000000860000000000001N290315000000000000000280000000000000000000000000000000000000000000000100008341381826FLAVIO ALVES DA SILVA                   RUA OSVALDO GRANDIZOLI, 5818                        15505118Ref.:QUADRA D-20                                            000042
2APOS O VENCIMENTO, PAGAVEL SOMENTE NO BANCO BRADESCO.                                                                                                                                                                                                                                                                                                                        0090002500028185000523266015000043
1                   00090002500028185326602      08691           2100000052326602300000000002N              01523266023205061500000000860000000000001N290315000000000000000280000000000000000000000000000000000000000000000100008341381826FLAVIO ALVES DA SILVA                   RUA OSVALDO GRANDIZOLI, 5818                        15505118Ref.:QUADRA D-20                                            000044
2APOS O VENCIMENTO, PAGAVEL SOMENTE NO BANCO BRADESCO.                                                                                                                                                                                                                                                                                                                        0090002500028185000523266023000045
1                   00090002500028185326603      08691           2100000052326603100000000002N              01523266033205071500000000860000000000001N290315000000000000000280000000000000000000000000000000000000000000000100008341381826FLAVIO ALVES DA SILVA                   RUA OSVALDO GRANDIZOLI, 5818                        15505118Ref.:QUADRA D-20                                            000046
2APOS O VENCIMENTO, PAGAVEL SOMENTE NO BANCO BRADESCO.                                                                                                                                                                                                                                                                                                                        0090002500028185000523266031000047
1                   00090002500028185326604      08691           2100000052326604P00000000002N              01523266043205081500000000860000000000001N290315000000000000000280000000000000000000000000000000000000000000000100008341381826FLAVIO ALVES DA SILVA                   RUA OSVALDO GRANDIZOLI, 5818                        15505118Ref.:QUADRA D-20                                            000048
2APOS O VENCIMENTO, PAGAVEL SOMENTE NO BANCO BRADESCO.                                                                                                                                                                                                                                                                                                                        009000250002818500052326604P000049
1                   00090002500028185326605      08691           2100000052326605800000000002N              01523266053205091500000000860000000000001N290315000000000000000280000000000000000000000000000000000000000000000100008341381826FLAVIO ALVES DA SILVA                   RUA OSVALDO GRANDIZOLI, 5818                        15505118Ref.:QUADRA D-20                                            000050
2APOS O VENCIMENTO, PAGAVEL SOMENTE NO BANCO BRADESCO.                                                                                                                                                                                                                                                                                                                        0090002500028185000523266058000051
1                   00090002500028185326606      08691           2100000052326606600000000002N              01523266063205101500000000358750000000001N290315000000000000000110000000000000000000000000000000000000000000000100008341381826FLAVIO ALVES DA SILVA                   RUA OSVALDO GRANDIZOLI, 5818                        15505118Ref.:QUADRA D-20                                            000052
2APOS O VENCIMENTO, PAGAVEL SOMENTE NO BANCO BRADESCO.                                                                                                                                                                                                                                                                                                                        0090002500028185000523266066000053
1                   00090002500028185326607      08691           2100000052326607400000000002N              01523266073205111500000000358750000000001N290315000000000000000110000000000000000000000000000000000000000000000100008341381826FLAVIO ALVES DA SILVA                   RUA OSVALDO GRANDIZOLI, 5818                        15505118Ref.:QUADRA D-20                                            000054
2APOS O VENCIMENTO, PAGAVEL SOMENTE NO BANCO BRADESCO.                                                                                                                                                                                                                                                                                                                        0090002500028185000523266074000055
1                   00090002500028185326608      08691           2100000052326608200000000002N              01523266083205121500000000358750000000001N290315000000000000000110000000000000000000000000000000000000000000000100008341381826FLAVIO ALVES DA SILVA                   RUA OSVALDO GRANDIZOLI, 5818                        15505118Ref.:QUADRA D-20                                            000056
2APOS O VENCIMENTO, PAGAVEL SOMENTE NO BANCO BRADESCO.                                                                                                                                                                                                                                                                                                                        0090002500028185000523266082000057
1                   00090002500028185326609      08691           2100000052326609000000000002N              01523266093205011600000000358750000000001N290315000000000000000110000000000000000000000000000000000000000000000100008341381826FLAVIO ALVES DA SILVA                   RUA OSVALDO GRANDIZOLI, 5818                        15505118Ref.:QUADRA D-20                                            000058
2APOS O VENCIMENTO, PAGAVEL SOMENTE NO BANCO BRADESCO.                                                                                                                                                                                                                                                                                                                        0090002500028185000523266090000059
1                   00090002500028185326610      08691           2100000052326610400000000002N              01523266103205021600000000358750000000001N290315000000000000000110000000000000000000000000000000000000000000000100008341381826FLAVIO ALVES DA SILVA                   RUA OSVALDO GRANDIZOLI, 5818                        15505118Ref.:QUADRA D-20                                            000060
2APOS O VENCIMENTO, PAGAVEL SOMENTE NO BANCO BRADESCO.                                                                                                                                                                                                                                                                                                                        0090002500028185000523266104000061
1                   00090002500028185326611      08691           2100000052326611200000000002N              01523266113205031600000000358750000000001N290315000000000000000110000000000000000000000000000000000000000000000100008341381826FLAVIO ALVES DA SILVA                   RUA OSVALDO GRANDIZOLI, 5818                        15505118Ref.:QUADRA D-20                                            000062
2APOS O VENCIMENTO, PAGAVEL SOMENTE NO BANCO BRADESCO.                                                                                                                                                                                                                                                                                                                        0090002500028185000523266112000063
1                   00090002500028185324058      08692           2100000112324058700000000002N              01112324058310051500000001140000000000001N250315000000000000000370000000000000000000000000000000000000000000000272962160000122IGREJA EVANGELICA ASSEMBLEIA DE DEUS    RUA PE. IZIDORO CORDEIRO PARANHOS, 3079             15502225Ref.:QUADRA J-16                                            000064
2APOS O VENCIMENTO, PAGAVEL SOMENTE NO BANCO BRADESCO.                                                                                                                                                                                                                                                                                                                        0090002500028185001123240587000065
1                   00090002500028185324059      08692           2100000112324059500000000002N              01112324059310061500000001140000000000001N250315000000000000000370000000000000000000000000000000000000000000000272962160000122IGREJA EVANGELICA ASSEMBLEIA DE DEUS    RUA PE. IZIDORO CORDEIRO PARANHOS, 3079             15502225Ref.:QUADRA J-16                                            000066
2APOS O VENCIMENTO, PAGAVEL SOMENTE NO BANCO BRADESCO.                                                                                                                                                                                                                                                                                                                        0090002500028185001123240595000067
1                   00090002500028185324060      08692           2100000112324060900000000002N              01112324060310071500000001140000000000001N250315000000000000000370000000000000000000000000000000000000000000000272962160000122IGREJA EVANGELICA ASSEMBLEIA DE DEUS    RUA PE. IZIDORO CORDEIRO PARANHOS, 3079             15502225Ref.:QUADRA J-16                                            000068
2APOS O VENCIMENTO, PAGAVEL SOMENTE NO BANCO BRADESCO.                                                                                                                                                                                                                                                                                                                        0090002500028185001123240609000069
1                   00090002500028185324061      08692           2100000112324061700000000002N              01112324061310081500000001140000000000001N250315000000000000000370000000000000000000000000000000000000000000000272962160000122IGREJA EVANGELICA ASSEMBLEIA DE DEUS    RUA PE. IZIDORO CORDEIRO PARANHOS, 3079             15502225Ref.:QUADRA J-16                                            000070
2APOS O VENCIMENTO, PAGAVEL SOMENTE NO BANCO BRADESCO.                                                                                                                                                                                                                                                                                                                        0090002500028185001123240617000071
1                   00090002500028185324062      08692           2100000112324062500000000002N              01112324062310091500000000475560000000001N250315000000000000000150000000000000000000000000000000000000000000000272962160000122IGREJA EVANGELICA ASSEMBLEIA DE DEUS    RUA PE. IZIDORO CORDEIRO PARANHOS, 3079             15502225Ref.:QUADRA J-16                                            000072
2APOS O VENCIMENTO, PAGAVEL SOMENTE NO BANCO BRADESCO.                                                                                                                                                                                                                                                                                                                        0090002500028185001123240625000073
1                   00090002500028185324063      08692           2100000112324063300000000002N              01112324063310101500000000475560000000001N250315000000000000000150000000000000000000000000000000000000000000000272962160000122IGREJA EVANGELICA ASSEMBLEIA DE DEUS    RUA PE. IZIDORO CORDEIRO PARANHOS, 3079             15502225Ref.:QUADRA J-16                                            000074
2APOS O VENCIMENTO, PAGAVEL SOMENTE NO BANCO BRADESCO.                                                                                                                                                                                                                                                                                                                        0090002500028185001123240633000075
1                   00090002500028185324064      08692           2100000112324064100000000002N              01112324064310111500000000475560000000001N250315000000000000000150000000000000000000000000000000000000000000000272962160000122IGREJA EVANGELICA ASSEMBLEIA DE DEUS    RUA PE. IZIDORO CORDEIRO PARANHOS, 3079             15502225Ref.:QUADRA J-16                                            000076
2APOS O VENCIMENTO, PAGAVEL SOMENTE NO BANCO BRADESCO.                                                                                                                                                                                                                                                                                                                        0090002500028185001123240641000077
1                   00090002500028185324065      08692           2100000112324065P00000000002N              01112324065310121500000000475560000000001N250315000000000000000150000000000000000000000000000000000000000000000272962160000122IGREJA EVANGELICA ASSEMBLEIA DE DEUS    RUA PE. IZIDORO CORDEIRO PARANHOS, 3079             15502225Ref.:QUADRA J-16                                            000078
2APOS O VENCIMENTO, PAGAVEL SOMENTE NO BANCO BRADESCO.                                                                                                                                                                                                                                                                                                                        009000250002818500112324065P000079
1                   00090002500028185324066      08692           2100000112324066800000000002N              01112324066310011600000000475560000000001N250315000000000000000150000000000000000000000000000000000000000000000272962160000122IGREJA EVANGELICA ASSEMBLEIA DE DEUS    RUA PE. IZIDORO CORDEIRO PARANHOS, 3079             15502225Ref.:QUADRA J-16                                            000080
2APOS O VENCIMENTO, PAGAVEL SOMENTE NO BANCO BRADESCO.                                                                                                                                                                                                                                                                                                                        0090002500028185001123240668000081
1                   00090002500028185324067      08692           2100000112324067600000000002N              01112324067310021600000000475560000000001N250315000000000000000150000000000000000000000000000000000000000000000272962160000122IGREJA EVANGELICA ASSEMBLEIA DE DEUS    RUA PE. IZIDORO CORDEIRO PARANHOS, 3079             15502225Ref.:QUADRA J-16                                            000082
2APOS O VENCIMENTO, PAGAVEL SOMENTE NO BANCO BRADESCO.                                                                                                                                                                                                                                                                                                                        0090002500028185001123240676000083
1                   00090002500028185324243      08693           2100000112324243100000000002N              01112324243310051500000000940000000000001N250315000000000000000310000000000000000000000000000000000000000000000272962160000122IGREJA EVANGELICA ASSEMBLEIA DE DEUS    RUA PE. IZIDORO CORDEIRO PARANHOS, 3079             15502225Ref.:QUADRA J-17                                            000084
2APOS O VENCIMENTO, PAGAVEL SOMENTE NO BANCO BRADESCO.                                                                                                                                                                                                                                                                                                                        0090002500028185001123242431000085
1                   00090002500028185324244      08693           2100000112324244P00000000002N              01112324244310061500000000940000000000001N250315000000000000000310000000000000000000000000000000000000000000000272962160000122IGREJA EVANGELICA ASSEMBLEIA DE DEUS    RUA PE. IZIDORO CORDEIRO PARANHOS, 3079             15502225Ref.:QUADRA J-17                                            000086
2APOS O VENCIMENTO, PAGAVEL SOMENTE NO BANCO BRADESCO.                                                                                                                                                                                                                                                                                                                        009000250002818500112324244P000087
1                   00090002500028185324245      08693           2100000112324245800000000002N              01112324245310071500000000940000000000001N250315000000000000000310000000000000000000000000000000000000000000000272962160000122IGREJA EVANGELICA ASSEMBLEIA DE DEUS    RUA PE. IZIDORO CORDEIRO PARANHOS, 3079             15502225Ref.:QUADRA J-17                                            000088
2APOS O VENCIMENTO, PAGAVEL SOMENTE NO BANCO BRADESCO.                                                                                                                                                                                                                                                                                                                        0090002500028185001123242458000089
1                   00090002500028185324246      08693           2100000112324246600000000002N              01112324246310081500000000940000000000001N250315000000000000000310000000000000000000000000000000000000000000000272962160000122IGREJA EVANGELICA ASSEMBLEIA DE DEUS    RUA PE. IZIDORO CORDEIRO PARANHOS, 3079             15502225Ref.:QUADRA J-17                                            000090
2APOS O VENCIMENTO, PAGAVEL SOMENTE NO BANCO BRADESCO.                                                                                                                                                                                                                                                                                                                        0090002500028185001123242466000091
1                   00090002500028185324247      08693           2100000112324247400000000002N              01112324247310091500000000392130000000001N250315000000000000000120000000000000000000000000000000000000000000000272962160000122IGREJA EVANGELICA ASSEMBLEIA DE DEUS    RUA PE. IZIDORO CORDEIRO PARANHOS, 3079             15502225Ref.:QUADRA J-17                                            000092
2APOS O VENCIMENTO, PAGAVEL SOMENTE NO BANCO BRADESCO.                                                                                                                                                                                                                                                                                                                        0090002500028185001123242474000093
1                   00090002500028185324248      08693           2100000112324248200000000002N              01112324248310101500000000392130000000001N250315000000000000000120000000000000000000000000000000000000000000000272962160000122IGREJA EVANGELICA ASSEMBLEIA DE DEUS    RUA PE. IZIDORO CORDEIRO PARANHOS, 3079             15502225Ref.:QUADRA J-17                                            000094
2APOS O VENCIMENTO, PAGAVEL SOMENTE NO BANCO BRADESCO.                                                                                                                                                                                                                                                                                                                        0090002500028185001123242482000095
1                   00090002500028185324249      08693           2100000112324249000000000002N              01112324249310111500000000392130000000001N250315000000000000000120000000000000000000000000000000000000000000000272962160000122IGREJA EVANGELICA ASSEMBLEIA DE DEUS    RUA PE. IZIDORO CORDEIRO PARANHOS, 3079             15502225Ref.:QUADRA J-17                                            000096
2APOS O VENCIMENTO, PAGAVEL SOMENTE NO BANCO BRADESCO.                                                                                                                                                                                                                                                                                                                        0090002500028185001123242490000097
1                   00090002500028185324250      08693           2100000112324250400000000002N              01112324250310121500000000392130000000001N250315000000000000000120000000000000000000000000000000000000000000000272962160000122IGREJA EVANGELICA ASSEMBLEIA DE DEUS    RUA PE. IZIDORO CORDEIRO PARANHOS, 3079             15502225Ref.:QUADRA J-17                                            000098
2APOS O VENCIMENTO, PAGAVEL SOMENTE NO BANCO BRADESCO.                                                                                                                                                                                                                                                                                                                        0090002500028185001123242504000099
1                   00090002500028185324251      08693           2100000112324251200000000002N              01112324251310011600000000392130000000001N250315000000000000000120000000000000000000000000000000000000000000000272962160000122IGREJA EVANGELICA ASSEMBLEIA DE DEUS    RUA PE. IZIDORO CORDEIRO PARANHOS, 3079             15502225Ref.:QUADRA J-17                                            000100
2APOS O VENCIMENTO, PAGAVEL SOMENTE NO BANCO BRADESCO.                                                                                                                                                                                                                                                                                                                        0090002500028185001123242512000101
1                   00090002500028185324252      08693           2100000112324252000000000002N              01112324252310021600000000392130000000001N250315000000000000000120000000000000000000000000000000000000000000000272962160000122IGREJA EVANGELICA ASSEMBLEIA DE DEUS    RUA PE. IZIDORO CORDEIRO PARANHOS, 3079             15502225Ref.:QUADRA J-17                                            000102
2APOS O VENCIMENTO, PAGAVEL SOMENTE NO BANCO BRADESCO.                                                                                                                                                                                                                                                                                                                        0090002500028185001123242520000103
1                   00090002500028185324736      08694           2100000040324736P00000000002N              01403247363215051500000000940000000000001N280315000000000000000310000000000000000000000000000000000000000000000200008612796890IRACY SANTOS DE AZEVEDO                 RUA MATO GROSSO 4861                                15505185Ref.:QUADRA J-10                                            000104
2APOS O VENCIMENTO, PAGAVEL SOMENTE NO BANCO BRADESCO.                                                                                                                                                                                                                                                                                                                        009000250002818500040324736P000105
1                   00090002500028185324737      08694           2100000040324737800000000002N              01403247373215061500000000940000000000001N280315000000000000000310000000000000000000000000000000000000000000000200008612796890IRACY SANTOS DE AZEVEDO                 RUA MATO GROSSO 4861                                15505185Ref.:QUADRA J-10                                            000106
2APOS O VENCIMENTO, PAGAVEL SOMENTE NO BANCO BRADESCO.                                                                                                                                                                                                                                                                                                                        0090002500028185000403247378000107
1                   00090002500028185324738      08694           2100000040324738600000000002N              01403247383215071500000000940000000000001N280315000000000000000310000000000000000000000000000000000000000000000200008612796890IRACY SANTOS DE AZEVEDO                 RUA MATO GROSSO 4861                                15505185Ref.:QUADRA J-10                                            000108
2APOS O VENCIMENTO, PAGAVEL SOMENTE NO BANCO BRADESCO.                                                                                                                                                                                                                                                                                                                        0090002500028185000403247386000109
1                   00090002500028185324739      08694           2100000040324739400000000002N              01403247393215081500000000940000000000001N280315000000000000000310000000000000000000000000000000000000000000000200008612796890IRACY SANTOS DE AZEVEDO                 RUA MATO GROSSO 4861                                15505185Ref.:QUADRA J-10                                            000110
2APOS O VENCIMENTO, PAGAVEL SOMENTE NO BANCO BRADESCO.                                                                                                                                                                                                                                                                                                                        0090002500028185000403247394000111
1                   00090002500028185324740      08694           2100000040324740800000000002N              01403247403215091500000000502110000000001N280315000000000000000160000000000000000000000000000000000000000000000200008612796890IRACY SANTOS DE AZEVEDO                 RUA MATO GROSSO 4861                                15505185Ref.:QUADRA J-10                                            000112
2APOS O VENCIMENTO, PAGAVEL SOMENTE NO BANCO BRADESCO.                                                                                                                                                                                                                                                                                                                        0090002500028185000403247408000113
1                   00090002500028185324741      08694           2100000040324741600000000002N              01403247413215101500000000502110000000001N280315000000000000000160000000000000000000000000000000000000000000000200008612796890IRACY SANTOS DE AZEVEDO                 RUA MATO GROSSO 4861                                15505185Ref.:QUADRA J-10                                            000114
2APOS O VENCIMENTO, PAGAVEL SOMENTE NO BANCO BRADESCO.                                                                                                                                                                                                                                                                                                                        0090002500028185000403247416000115
1                   00090002500028185324742      08694           2100000040324742400000000002N              01403247423215111500000000502110000000001N280315000000000000000160000000000000000000000000000000000000000000000200008612796890IRACY SANTOS DE AZEVEDO                 RUA MATO GROSSO 4861                                15505185Ref.:QUADRA J-10                                            000116
2APOS O VENCIMENTO, PAGAVEL SOMENTE NO BANCO BRADESCO.                                                                                                                                                                                                                                                                                                                        0090002500028185000403247424000117
1                   00090002500028185324743      08694           2100000040324743200000000002N              01403247433215121500000000502110000000001N280315000000000000000160000000000000000000000000000000000000000000000200008612796890IRACY SANTOS DE AZEVEDO                 RUA MATO GROSSO 4861                                15505185Ref.:QUADRA J-10                                            000118
2APOS O VENCIMENTO, PAGAVEL SOMENTE NO BANCO BRADESCO.                                                                                                                                                                                                                                                                                                                        0090002500028185000403247432000119
1                   00090002500028185324744      08694           2100000040324744000000000002N              01403247443215011600000000502110000000001N280315000000000000000160000000000000000000000000000000000000000000000200008612796890IRACY SANTOS DE AZEVEDO                 RUA MATO GROSSO 4861                                15505185Ref.:QUADRA J-10                                            000120
2APOS O VENCIMENTO, PAGAVEL SOMENTE NO BANCO BRADESCO.                                                                                                                                                                                                                                                                                                                        0090002500028185000403247440000121
1                   00090002500028185324745      08694           2100000040324745900000000002N              01403247453215021600000000502110000000001N280315000000000000000160000000000000000000000000000000000000000000000200008612796890IRACY SANTOS DE AZEVEDO                 RUA MATO GROSSO 4861                                15505185Ref.:QUADRA J-10                                            000122
2APOS O VENCIMENTO, PAGAVEL SOMENTE NO BANCO BRADESCO.                                                                                                                                                                                                                                                                                                                        0090002500028185000403247459000123
1                   00090002500028185327394      08695           2100000138327394200000000002N              01138327394330041500000001075000000000001N300315000000000000000350000000000000000000000000000000000000000000000200038739055825JAIR LOPES FILHO                        RUA GUAPORE, 3653                                   15500086Ref.:QUADRA E-23                                            000124
2APOS O VENCIMENTO, PAGAVEL SOMENTE NO BANCO BRADESCO.                                                                                                                                                                                                                                                                                                                        0090002500028185001383273942000125
1                   00090002500028185327395      08695           2100000138327395000000000002N              01138327395330051500000001075000000000001N300315000000000000000350000000000000000000000000000000000000000000000200038739055825JAIR LOPES FILHO                        RUA GUAPORE, 3653                                   15500086Ref.:QUADRA E-23                                            000126
2APOS O VENCIMENTO, PAGAVEL SOMENTE NO BANCO BRADESCO.                                                                                                                                                                                                                                                                                                                        0090002500028185001383273950000127
1                   00090002500028185327396      08695           2100000138327396900000000002N              01138327396330061500000001075000000000001N300315000000000000000350000000000000000000000000000000000000000000000200038739055825JAIR LOPES FILHO                        RUA GUAPORE, 3653                                   15500086Ref.:QUADRA E-23                                            000128
2APOS O VENCIMENTO, PAGAVEL SOMENTE NO BANCO BRADESCO.                                                                                                                                                                                                                                                                                                                        0090002500028185001383273969000129
1                   00090002500028185327397      08695           2100000138327397700000000002N              01138327397330071500000000358750000000001N300315000000000000000110000000000000000000000000000000000000000000000200038739055825JAIR LOPES FILHO                        RUA GUAPORE, 3653                                   15500086Ref.:QUADRA E-23                                            000130
2APOS O VENCIMENTO, PAGAVEL SOMENTE NO BANCO BRADESCO.                                                                                                                                                                                                                                                                                                                        0090002500028185001383273977000131
1                   00090002500028185327398      08695           2100000138327398500000000002N              01138327398330081500000000358750000000001N300315000000000000000110000000000000000000000000000000000000000000000200038739055825JAIR LOPES FILHO                        RUA GUAPORE, 3653                                   15500086Ref.:QUADRA E-23                                            000132
2APOS O VENCIMENTO, PAGAVEL SOMENTE NO BANCO BRADESCO.                                                                                                                                                                                                                                                                                                                        0090002500028185001383273985000133
1                   00090002500028185327399      08695           2100000138327399300000000002N              01138327399330091500000000358750000000001N300315000000000000000110000000000000000000000000000000000000000000000200038739055825JAIR LOPES FILHO                        RUA GUAPORE, 3653                                   15500086Ref.:QUADRA E-23                                            000134
2APOS O VENCIMENTO, PAGAVEL SOMENTE NO BANCO BRADESCO.                                                                                                                                                                                                                                                                                                                        0090002500028185001383273993000135
1                   00090002500028185327400      08695           2100000138327400000000000002N              01138327400330101500000000358750000000001N300315000000000000000110000000000000000000000000000000000000000000000200038739055825JAIR LOPES FILHO                        RUA GUAPORE, 3653                                   15500086Ref.:QUADRA E-23                                            000136
2APOS O VENCIMENTO, PAGAVEL SOMENTE NO BANCO BRADESCO.                                                                                                                                                                                                                                                                                                                        0090002500028185001383274000000137
1                   00090002500028185327401      08695           2100000138327401900000000002N              01138327401330111500000000358750000000001N300315000000000000000110000000000000000000000000000000000000000000000200038739055825JAIR LOPES FILHO                        RUA GUAPORE, 3653                                   15500086Ref.:QUADRA E-23                                            000138
2APOS O VENCIMENTO, PAGAVEL SOMENTE NO BANCO BRADESCO.                                                                                                                                                                                                                                                                                                                        0090002500028185001383274019000139
1                   00090002500028185327402      08695           2100000138327402700000000002N              01138327402330121500000000358750000000001N300315000000000000000110000000000000000000000000000000000000000000000200038739055825JAIR LOPES FILHO                        RUA GUAPORE, 3653                                   15500086Ref.:QUADRA E-23                                            000140
2APOS O VENCIMENTO, PAGAVEL SOMENTE NO BANCO BRADESCO.                                                                                                                                                                                                                                                                                                                        0090002500028185001383274027000141
1                   00090002500028185324428      08696           2100000135324428P00000000002N              01135324428327041500000000450000000000001N250315000000000000000140000000000000000000000000000000000000000000000200031664390804JULIO CESAR BARBOSA DE SOUZA             RUA EUGENIO BUOSI 3-05                             15520000Ref.:QUADRA E-19                                            000142
2APOS O VENCIMENTO, PAGAVEL SOMENTE NO BANCO BRADESCO.                                                                                                                                                                                                                                                                                                                        009000250002818500135324428P000143
1                   00090002500028185324429      08696           2100000135324429800000000002N              01135324429327051500000000425000000000001N250315000000000000000140000000000000000000000000000000000000000000000200031664390804JULIO CESAR BARBOSA DE SOUZA             RUA EUGENIO BUOSI 3-05                             15520000Ref.:QUADRA E-19                                            000144
2APOS O VENCIMENTO, PAGAVEL SOMENTE NO BANCO BRADESCO.                                                                                                                                                                                                                                                                                                                        0090002500028185001353244298000145
1                   00090002500028185324430      08696           2100000135324430100000000002N              01135324430327061500000000425000000000001N250315000000000000000140000000000000000000000000000000000000000000000200031664390804JULIO CESAR BARBOSA DE SOUZA             RUA EUGENIO BUOSI 3-05                             15520000Ref.:QUADRA E-19                                            000146
2APOS O VENCIMENTO, PAGAVEL SOMENTE NO BANCO BRADESCO.                                                                                                                                                                                                                                                                                                                        0090002500028185001353244301000147
1                   00090002500028185324431      08696           2100000135324431P00000000002N              01135324431310081500000000459380000000001N250315000000000000000150000000000000000000000000000000000000000000000200031664390804JULIO CESAR BARBOSA DE SOUZA             RUA EUGENIO BUOSI 3-05                             15520000Ref.:QUADRA E-19                                            000148
2APOS O VENCIMENTO, PAGAVEL SOMENTE NO BANCO BRADESCO.                                                                                                                                                                                                                                                                                                                        009000250002818500135324431P000149
1                   00090002500028185324432      08696           2100000135324432800000000002N              01135324432310091500000000459380000000001N250315000000000000000150000000000000000000000000000000000000000000000200031664390804JULIO CESAR BARBOSA DE SOUZA             RUA EUGENIO BUOSI 3-05                             15520000Ref.:QUADRA E-19                                            000150
2APOS O VENCIMENTO, PAGAVEL SOMENTE NO BANCO BRADESCO.                                                                                                                                                                                                                                                                                                                        0090002500028185001353244328000151
1                   00090002500028185324433      08696           2100000135324433600000000002N              01135324433310101500000000459380000000001N250315000000000000000150000000000000000000000000000000000000000000000200031664390804JULIO CESAR BARBOSA DE SOUZA             RUA EUGENIO BUOSI 3-05                             15520000Ref.:QUADRA E-19                                            000152
2APOS O VENCIMENTO, PAGAVEL SOMENTE NO BANCO BRADESCO.                                                                                                                                                                                                                                                                                                                        0090002500028185001353244336000153
1                   00090002500028185324434      08696           2100000135324434400000000002N              01135324434310111500000000459380000000001N250315000000000000000150000000000000000000000000000000000000000000000200031664390804JULIO CESAR BARBOSA DE SOUZA             RUA EUGENIO BUOSI 3-05                             15520000Ref.:QUADRA E-19                                            000154
2APOS O VENCIMENTO, PAGAVEL SOMENTE NO BANCO BRADESCO.                                                                                                                                                                                                                                                                                                                        0090002500028185001353244344000155
1                   00090002500028185324435      08696           2100000135324435200000000002N              01135324435310121500000000459380000000001N250315000000000000000150000000000000000000000000000000000000000000000200031664390804JULIO CESAR BARBOSA DE SOUZA             RUA EUGENIO BUOSI 3-05                             15520000Ref.:QUADRA E-19                                            000156
2APOS O VENCIMENTO, PAGAVEL SOMENTE NO BANCO BRADESCO.                                                                                                                                                                                                                                                                                                                        0090002500028185001353244352000157
1                   00090002500028185324436      08696           2100000135324436000000000002N              01135324436310011600000000459380000000001N250315000000000000000150000000000000000000000000000000000000000000000200031664390804JULIO CESAR BARBOSA DE SOUZA             RUA EUGENIO BUOSI 3-05                             15520000Ref.:QUADRA E-19                                            000158
2APOS O VENCIMENTO, PAGAVEL SOMENTE NO BANCO BRADESCO.                                                                                                                                                                                                                                                                                                                        0090002500028185001353244360000159
1                   00090002500028185326050      08697           2100000053326050300000000002N              01533260503225041500000001075000000000001N280315000000000000000350000000000000000000000000000000000000000000000100009989516847LUCIANO MISIAGIA                        RUA EDUARDO JOAQUIM NEVES, 603                      15506102Ref.:QUADRA D-19                                            000160
2APOS O VENCIMENTO, PAGAVEL SOMENTE NO BANCO BRADESCO.                                                                                                                                                                                                                                                                                                                        0090002500028185000533260503000161
1                   00090002500028185326051      08697           2100000053326051100000000002N              01533260513225051500000001075000000000001N280315000000000000000350000000000000000000000000000000000000000000000100009989516847LUCIANO MISIAGIA                        RUA EDUARDO JOAQUIM NEVES, 603                      15506102Ref.:QUADRA D-19                                            000162
2APOS O VENCIMENTO, PAGAVEL SOMENTE NO BANCO BRADESCO.                                                                                                                                                                                                                                                                                                                        0090002500028185000533260511000163
1                   00090002500028185326052      08697           2100000053326052P00000000002N              01533260523225061500000001075000000000001N280315000000000000000350000000000000000000000000000000000000000000000100009989516847LUCIANO MISIAGIA                        RUA EDUARDO JOAQUIM NEVES, 603                      15506102Ref.:QUADRA D-19                                            000164
2APOS O VENCIMENTO, PAGAVEL SOMENTE NO BANCO BRADESCO.                                                                                                                                                                                                                                                                                                                        009000250002818500053326052P000165
1                   00090002500028185326053      08697           2100000053326053800000000002N              01533260533225071500000000358750000000001N280315000000000000000110000000000000000000000000000000000000000000000100009989516847LUCIANO MISIAGIA                        RUA EDUARDO JOAQUIM NEVES, 603                      15506102Ref.:QUADRA D-19                                            000166
2APOS O VENCIMENTO, PAGAVEL SOMENTE NO BANCO BRADESCO.                                                                                                                                                                                                                                                                                                                        0090002500028185000533260538000167
1                   00090002500028185326054      08697           2100000053326054600000000002N              01533260543225081500000000358750000000001N280315000000000000000110000000000000000000000000000000000000000000000100009989516847LUCIANO MISIAGIA                        RUA EDUARDO JOAQUIM NEVES, 603                      15506102Ref.:QUADRA D-19                                            000168
2APOS O VENCIMENTO, PAGAVEL SOMENTE NO BANCO BRADESCO.                                                                                                                                                                                                                                                                                                                        0090002500028185000533260546000169
1                   00090002500028185326055      08697           2100000053326055400000000002N              01533260553225091500000000358750000000001N280315000000000000000110000000000000000000000000000000000000000000000100009989516847LUCIANO MISIAGIA                        RUA EDUARDO JOAQUIM NEVES, 603                      15506102Ref.:QUADRA D-19                                            000170
2APOS O VENCIMENTO, PAGAVEL SOMENTE NO BANCO BRADESCO.                                                                                                                                                                                                                                                                                                                        0090002500028185000533260554000171
1                   00090002500028185326056      08697           2100000053326056200000000002N              01533260563225101500000000358750000000001N280315000000000000000110000000000000000000000000000000000000000000000100009989516847LUCIANO MISIAGIA                        RUA EDUARDO JOAQUIM NEVES, 603                      15506102Ref.:QUADRA D-19                                            000172
2APOS O VENCIMENTO, PAGAVEL SOMENTE NO BANCO BRADESCO.                                                                                                                                                                                                                                                                                                                        0090002500028185000533260562000173
1                   00090002500028185326057      08697           2100000053326057000000000002N              01533260573225111500000000358750000000001N280315000000000000000110000000000000000000000000000000000000000000000100009989516847LUCIANO MISIAGIA                        RUA EDUARDO JOAQUIM NEVES, 603                      15506102Ref.:QUADRA D-19                                            000174
2APOS O VENCIMENTO, PAGAVEL SOMENTE NO BANCO BRADESCO.                                                                                                                                                                                                                                                                                                                        0090002500028185000533260570000175
1                   00090002500028185326058      08697           2100000053326058900000000002N              01533260583225121500000000358750000000001N280315000000000000000110000000000000000000000000000000000000000000000100009989516847LUCIANO MISIAGIA                        RUA EDUARDO JOAQUIM NEVES, 603                      15506102Ref.:QUADRA D-19                                            000176
2APOS O VENCIMENTO, PAGAVEL SOMENTE NO BANCO BRADESCO.                                                                                                                                                                                                                                                                                                                        0090002500028185000533260589000177
1                   00090002500028185326419      08698           2100000055326419P00000000002N              01553264193230041500000000650000000000001N290315000000000000000210000000000000000000000000000000000000000000000100018449481880LUIS CARLOS DE OLIVEIRA                 RUA OSVALDO GRANDIZOLI , 5676                       15505118Ref.:QUADRA D-06                                            000178
2APOS O VENCIMENTO, PAGAVEL SOMENTE NO BANCO BRADESCO.                                                                                                                                                                                                                                                                                                                        009000250002818500055326419P000179
1                   00090002500028185326420      08698           2100000055326420300000000002N              01553264203230051500000000650000000000001N290315000000000000000210000000000000000000000000000000000000000000000100018449481880LUIS CARLOS DE OLIVEIRA                 RUA OSVALDO GRANDIZOLI , 5676                       15505118Ref.:QUADRA D-06                                            000180
2APOS O VENCIMENTO, PAGAVEL SOMENTE NO BANCO BRADESCO.                                                                                                                                                                                                                                                                                                                        0090002500028185000553264203000181
1                   00090002500028185326421      08698           2100000055326421100000000002N              01553264213230061500000000358750000000001N290315000000000000000110000000000000000000000000000000000000000000000100018449481880LUIS CARLOS DE OLIVEIRA                 RUA OSVALDO GRANDIZOLI , 5676                       15505118Ref.:QUADRA D-06                                            000182
2APOS O VENCIMENTO, PAGAVEL SOMENTE NO BANCO BRADESCO.                                                                                                                                                                                                                                                                                                                        0090002500028185000553264211000183
1                   00090002500028185326422      08698           2100000055326422P00000000002N              01553264223230071500000000358750000000001N290315000000000000000110000000000000000000000000000000000000000000000100018449481880LUIS CARLOS DE OLIVEIRA                 RUA OSVALDO GRANDIZOLI , 5676                       15505118Ref.:QUADRA D-06                                            000184
2APOS O VENCIMENTO, PAGAVEL SOMENTE NO BANCO BRADESCO.                                                                                                                                                                                                                                                                                                                        009000250002818500055326422P000185
1                   00090002500028185326423      08698           2100000055326423800000000002N              01553264233230081500000000358750000000001N290315000000000000000110000000000000000000000000000000000000000000000100018449481880LUIS CARLOS DE OLIVEIRA                 RUA OSVALDO GRANDIZOLI , 5676                       15505118Ref.:QUADRA D-06                                            000186
2APOS O VENCIMENTO, PAGAVEL SOMENTE NO BANCO BRADESCO.                                                                                                                                                                                                                                                                                                                        0090002500028185000553264238000187
1                   00090002500028185326424      08698           2100000055326424600000000002N              01553264243230091500000000358750000000001N290315000000000000000110000000000000000000000000000000000000000000000100018449481880LUIS CARLOS DE OLIVEIRA                 RUA OSVALDO GRANDIZOLI , 5676                       15505118Ref.:QUADRA D-06                                            000188
2APOS O VENCIMENTO, PAGAVEL SOMENTE NO BANCO BRADESCO.                                                                                                                                                                                                                                                                                                                        0090002500028185000553264246000189
1                   00090002500028185326425      08698           2100000055326425400000000002N              01553264253230101500000000358750000000001N290315000000000000000110000000000000000000000000000000000000000000000100018449481880LUIS CARLOS DE OLIVEIRA                 RUA OSVALDO GRANDIZOLI , 5676                       15505118Ref.:QUADRA D-06                                            000190
2APOS O VENCIMENTO, PAGAVEL SOMENTE NO BANCO BRADESCO.                                                                                                                                                                                                                                                                                                                        0090002500028185000553264254000191
1                   00090002500028185326426      08698           2100000055326426200000000002N              01553264263230111500000000358750000000001N290315000000000000000110000000000000000000000000000000000000000000000100018449481880LUIS CARLOS DE OLIVEIRA                 RUA OSVALDO GRANDIZOLI , 5676                       15505118Ref.:QUADRA D-06                                            000192
2APOS O VENCIMENTO, PAGAVEL SOMENTE NO BANCO BRADESCO.                                                                                                                                                                                                                                                                                                                        0090002500028185000553264262000193
1                   00090002500028185325861      08699           2100000052325861600000000002N              01523258613210051500000000562500000000001N280315000000000000000180000000000000000000000000000000000000000000000100022005488852MARCIO JOSE DEGHIARO                    RUA JOS BATISTA PEREIRA, 6259                      15505284Ref.:QUADRA F-01                                            000194
2APOS O VENCIMENTO, PAGAVEL SOMENTE NO BANCO BRADESCO.                                                                                                                                                                                                                                                                                                                        0090002500028185000523258616000195
1                   00090002500028185325862      08699           2100000052325862400000000002N              01523258623210061500000000562500000000001N280315000000000000000180000000000000000000000000000000000000000000000100022005488852MARCIO JOSE DEGHIARO                    RUA JOS BATISTA PEREIRA, 6259                      15505284Ref.:QUADRA F-01                                            000196
2APOS O VENCIMENTO, PAGAVEL SOMENTE NO BANCO BRADESCO.                                                                                                                                                                                                                                                                                                                        0090002500028185000523258624000197
1                   00090002500028185325863      08699           2100000052325863200000000002N              01523258633210071500000000562500000000001N280315000000000000000180000000000000000000000000000000000000000000000100022005488852MARCIO JOSE DEGHIARO                    RUA JOS BATISTA PEREIRA, 6259                      15505284Ref.:QUADRA F-01                                            000198
2APOS O VENCIMENTO, PAGAVEL SOMENTE NO BANCO BRADESCO.                                                                                                                                                                                                                                                                                                                        0090002500028185000523258632000199
1                   00090002500028185325864      08699           2100000052325864000000000002N              01523258643210081500000000562500000000001N280315000000000000000180000000000000000000000000000000000000000000000100022005488852MARCIO JOSE DEGHIARO                    RUA JOS BATISTA PEREIRA, 6259                      15505284Ref.:QUADRA F-01                                            000200
2APOS O VENCIMENTO, PAGAVEL SOMENTE NO BANCO BRADESCO.                                                                                                                                                                                                                                                                                                                        0090002500028185000523258640000201
1                   00090002500028185325865      08699           2100000052325865900000000002N              01523258653210091500000000562500000000001N280315000000000000000180000000000000000000000000000000000000000000000100022005488852MARCIO JOSE DEGHIARO                    RUA JOS BATISTA PEREIRA, 6259                      15505284Ref.:QUADRA F-01                                            000202
2APOS O VENCIMENTO, PAGAVEL SOMENTE NO BANCO BRADESCO.                                                                                                                                                                                                                                                                                                                        0090002500028185000523258659000203
1                   00090002500028185325866      08699           2100000052325866700000000002N              01523258663210101500000000562500000000001N280315000000000000000180000000000000000000000000000000000000000000000100022005488852MARCIO JOSE DEGHIARO                    RUA JOS BATISTA PEREIRA, 6259                      15505284Ref.:QUADRA F-01                                            000204
2APOS O VENCIMENTO, PAGAVEL SOMENTE NO BANCO BRADESCO.                                                                                                                                                                                                                                                                                                                        0090002500028185000523258667000205
1                   00090002500028185325867      08699           2100000052325867500000000002N              01523258673210111500000000562500000000001N280315000000000000000180000000000000000000000000000000000000000000000100022005488852MARCIO JOSE DEGHIARO                    RUA JOS BATISTA PEREIRA, 6259                      15505284Ref.:QUADRA F-01                                            000206
2APOS O VENCIMENTO, PAGAVEL SOMENTE NO BANCO BRADESCO.                                                                                                                                                                                                                                                                                                                        0090002500028185000523258675000207
1                   00090002500028185325868      08699           2100000052325868300000000002N              01523258683210121500000000562500000000001N280315000000000000000180000000000000000000000000000000000000000000000100022005488852MARCIO JOSE DEGHIARO                    RUA JOS BATISTA PEREIRA, 6259                      15505284Ref.:QUADRA F-01                                            000208
2APOS O VENCIMENTO, PAGAVEL SOMENTE NO BANCO BRADESCO.                                                                                                                                                                                                                                                                                                                        0090002500028185000523258683000209
1                   00090002500028185325869      08699           2100000052325869100000000002N              01523258693210011600000000467210000000001N280315000000000000000150000000000000000000000000000000000000000000000100022005488852MARCIO JOSE DEGHIARO                    RUA JOS BATISTA PEREIRA, 6259                      15505284Ref.:QUADRA F-01                                            000210
2APOS O VENCIMENTO, PAGAVEL SOMENTE NO BANCO BRADESCO.                                                                                                                                                                                                                                                                                                                        0090002500028185000523258691000211
1                   00090002500028185325870      08699           2100000052325870500000000002N              01523258703210021600000000467210000000001N280315000000000000000150000000000000000000000000000000000000000000000100022005488852MARCIO JOSE DEGHIARO                    RUA JOS BATISTA PEREIRA, 6259                      15505284Ref.:QUADRA F-01                                            000212
2APOS O VENCIMENTO, PAGAVEL SOMENTE NO BANCO BRADESCO.                                                                                                                                                                                                                                                                                                                        0090002500028185000523258705000213
1                   00090002500028185325871      08699           2100000052325871300000000002N              01523258713210031600000000467210000000001N280315000000000000000150000000000000000000000000000000000000000000000100022005488852MARCIO JOSE DEGHIARO                    RUA JOS BATISTA PEREIRA, 6259                      15505284Ref.:QUADRA F-01                                            000214
2APOS O VENCIMENTO, PAGAVEL SOMENTE NO BANCO BRADESCO.                                                                                                                                                                                                                                                                                                                        0090002500028185000523258713000215
1                   00090002500028185325872      08699           2100000052325872100000000002N              01523258723210041600000000467210000000001N280315000000000000000150000000000000000000000000000000000000000000000100022005488852MARCIO JOSE DEGHIARO                    RUA JOS BATISTA PEREIRA, 6259                      15505284Ref.:QUADRA F-01                                            000216
2APOS O VENCIMENTO, PAGAVEL SOMENTE NO BANCO BRADESCO.                                                                                                                                                                                                                                                                                                                        0090002500028185000523258721000217
1                   00090002500028185325873      08699           2100000052325873P00000000002N              01523258733210051600000000467210000000001N280315000000000000000150000000000000000000000000000000000000000000000100022005488852MARCIO JOSE DEGHIARO                    RUA JOS BATISTA PEREIRA, 6259                      15505284Ref.:QUADRA F-01                                            000218
2APOS O VENCIMENTO, PAGAVEL SOMENTE NO BANCO BRADESCO.                                                                                                                                                                                                                                                                                                                        009000250002818500052325873P000219
1                   00090002500028185325874      08699           2100000052325874800000000002N              01523258743210061600000000467210000000001N280315000000000000000150000000000000000000000000000000000000000000000100022005488852MARCIO JOSE DEGHIARO                    RUA JOS BATISTA PEREIRA, 6259                      15505284Ref.:QUADRA F-01                                            000220
2APOS O VENCIMENTO, PAGAVEL SOMENTE NO BANCO BRADESCO.                                                                                                                                                                                                                                                                                                                        0090002500028185000523258748000221
1                   00090002500028185324986      08700           2100000042324986500000000002N              01423249863230041500000001075000000000001N280315000000000000000350000000000000000000000000000000000000000000000200010926736876MARCOS APARECIDO MAZIERI                RUA NICOLAU PIGNATARI, 3253                         15501376Ref.:QUADRA D-04                                            000222
2APOS O VENCIMENTO, PAGAVEL SOMENTE NO BANCO BRADESCO.                                                                                                                                                                                                                                                                                                                        0090002500028185000423249865000223
1                   00090002500028185324987      08700           2100000042324987300000000002N              01423249873230051500000001075000000000001N280315000000000000000350000000000000000000000000000000000000000000000200010926736876MARCOS APARECIDO MAZIERI                RUA NICOLAU PIGNATARI, 3253                         15501376Ref.:QUADRA D-04                                            000224
2APOS O VENCIMENTO, PAGAVEL SOMENTE NO BANCO BRADESCO.                                                                                                                                                                                                                                                                                                                        0090002500028185000423249873000225
1                   00090002500028185324988      08700           2100000042324988100000000002N              01423249883230061500000001075000000000001N280315000000000000000350000000000000000000000000000000000000000000000200010926736876MARCOS APARECIDO MAZIERI                RUA NICOLAU PIGNATARI, 3253                         15501376Ref.:QUADRA D-04                                            000226
2APOS O VENCIMENTO, PAGAVEL SOMENTE NO BANCO BRADESCO.                                                                                                                                                                                                                                                                                                                        0090002500028185000423249881000227
1                   00090002500028185324989      08700           2100000042324989P00000000002N              01423249893230071500000000537310000000001N280315000000000000000170000000000000000000000000000000000000000000000200010926736876MARCOS APARECIDO MAZIERI                RUA NICOLAU PIGNATARI, 3253                         15501376Ref.:QUADRA D-04                                            000228
2APOS O VENCIMENTO, PAGAVEL SOMENTE NO BANCO BRADESCO.                                                                                                                                                                                                                                                                                                                        009000250002818500042324989P000229
1                   00090002500028185324990      08700           2100000042324990300000000002N              01423249903230081500000000537310000000001N280315000000000000000170000000000000000000000000000000000000000000000200010926736876MARCOS APARECIDO MAZIERI                RUA NICOLAU PIGNATARI, 3253                         15501376Ref.:QUADRA D-04                                            000230
2APOS O VENCIMENTO, PAGAVEL SOMENTE NO BANCO BRADESCO.                                                                                                                                                                                                                                                                                                                        0090002500028185000423249903000231
1                   00090002500028185324991      08700           2100000042324991100000000002N              01423249913230091500000000537310000000001N280315000000000000000170000000000000000000000000000000000000000000000200010926736876MARCOS APARECIDO MAZIERI                RUA NICOLAU PIGNATARI, 3253                         15501376Ref.:QUADRA D-04                                            000232
2APOS O VENCIMENTO, PAGAVEL SOMENTE NO BANCO BRADESCO.                                                                                                                                                                                                                                                                                                                        0090002500028185000423249911000233
1                   00090002500028185324992      08700           2100000042324992P00000000002N              01423249923230101500000000537310000000001N280315000000000000000170000000000000000000000000000000000000000000000200010926736876MARCOS APARECIDO MAZIERI                RUA NICOLAU PIGNATARI, 3253                         15501376Ref.:QUADRA D-04                                            000234
2APOS O VENCIMENTO, PAGAVEL SOMENTE NO BANCO BRADESCO.                                                                                                                                                                                                                                                                                                                        009000250002818500042324992P000235
1                   00090002500028185324993      08700           2100000042324993800000000002N              01423249933230111500000000537310000000001N280315000000000000000170000000000000000000000000000000000000000000000200010926736876MARCOS APARECIDO MAZIERI                RUA NICOLAU PIGNATARI, 3253                         15501376Ref.:QUADRA D-04                                            000236
2APOS O VENCIMENTO, PAGAVEL SOMENTE NO BANCO BRADESCO.                                                                                                                                                                                                                                                                                                                        0090002500028185000423249938000237
1                   00090002500028185324994      08700           2100000042324994600000000002N              01423249943230121500000000537310000000001N280315000000000000000170000000000000000000000000000000000000000000000200010926736876MARCOS APARECIDO MAZIERI                RUA NICOLAU PIGNATARI, 3253                         15501376Ref.:QUADRA D-04                                            000238
2APOS O VENCIMENTO, PAGAVEL SOMENTE NO BANCO BRADESCO.                                                                                                                                                                                                                                                                                                                        0090002500028185000423249946000239
1                   00090002500028185325086      08701           2100000043325086100000000002N              01433250863210051500000001075000000000001N280315000000000000000350000000000000000000000000000000000000000000000100034741687899MONICA APARECIDA GARCIA CELESTINO       RUA MIGUEL PUERTA GONALVES, 1727                   15502339Ref.:QUADRA E-24                                            000240
2APOS O VENCIMENTO, PAGAVEL SOMENTE NO BANCO BRADESCO.                                                                                                                                                                                                                                                                                                                        0090002500028185000433250861000241
1                   00090002500028185325087      08701           2100000043325087P00000000002N              01433250873210061500000001075000000000001N280315000000000000000350000000000000000000000000000000000000000000000100034741687899MONICA APARECIDA GARCIA CELESTINO       RUA MIGUEL PUERTA GONALVES, 1727                   15502339Ref.:QUADRA E-24                                            000242
2APOS O VENCIMENTO, PAGAVEL SOMENTE NO BANCO BRADESCO.                                                                                                                                                                                                                                                                                                                        009000250002818500043325087P000243
1                   00090002500028185325088      08701           2100000043325088800000000002N              01433250883210071500000001075000000000001N280315000000000000000350000000000000000000000000000000000000000000000100034741687899MONICA APARECIDA GARCIA CELESTINO       RUA MIGUEL PUERTA GONALVES, 1727                   15502339Ref.:QUADRA E-24                                            000244
2APOS O VENCIMENTO, PAGAVEL SOMENTE NO BANCO BRADESCO.                                                                                                                                                                                                                                                                                                                        0090002500028185000433250888000245
1                   00090002500028185325089      08701           2100000043325089600000000002N              01433250893210081500000000537310000000001N280315000000000000000170000000000000000000000000000000000000000000000100034741687899MONICA APARECIDA GARCIA CELESTINO       RUA MIGUEL PUERTA GONALVES, 1727                   15502339Ref.:QUADRA E-24                                            000246
