01REMESSA01COBRANCA       00000000000004732947AUX EMPREENDIMENTOS IMOBILIARI237BRADESCO       300315        MX0008876                                                                                                                                                                                                                                                                                     000001                                                                                                                                                                               0000001
1                   00090002500028185325186      09998           2100000044325186600000000002N              01443251863230041500000000660000000000001N280315000000000000000210000000000000000000000000000000000000000000000200036625229857DANILO HENRIQUE TREVISAN                 RUA ANTONIO GALERA LOPES, 3341                     15503024Ref.:QUADRA E-25                                            000002    001                                                                                                                                                                        0000002
2APOS O VENCIMENTO, PAGAVEL SOMENTE NO BANCO BRADESCO.                                                                                                                                                                                                                                                                                                                        0090002500028185000443251866000003    23794641400000660000025090004432518600028180   23790.02500 90004.432515 86000.281807 4 64140000066000    30/04/2015    07/07/2015    0025090004432518600028180    001      0000003
100000000000000000000000000000000000000000000000000000000000000000000000000000000000000000000000000000000000000000000000000000000000000000000000000000000000000000000000000000000000000000000000000000000000000000000000000000000000000000000000000000000    001                                                                                                                                                                                                                                                                                                                               0000004
200000000000000000000000000000000000000000000000000000000000000000000000000000000000000000000000000000000000000000000000000000000000000000000000000000000000000000000000000000000000000000000000000000000000000000000000000000000000000000000000000000000    001                                                                                                                                                                                                                                                                                                                               0000005
100000000000000000000000000000000000000000000000000000000000000000000000000000000000000000000000000000000000000000000000000000000000000000000000000000000000000000000000000000000000000000000000000000000000000000000000000000000000000000000000000000000    001                                                                                                                                                                                                                                                                                                                               0000006
200000000000000000000000000000000000000000000000000000000000000000000000000000000000000000000000000000000000000000000000000000000000000000000000000000000000000000000000000000000000000000000000000000000000000000000000000000000000000000000000000000000    001                                                                                                                                                                                                                                                                                                                               0000007
9                                                                                                                                                                                                                                                                                                                                                                                                                                                                                                                                                                                              0000008
01REMESSA01COBRANCA       00000000000004732947AUX EMPREENDIMENTOS IMOBILIARI237BRADESCO       300315        MX0008876                                                                                                                                                                                                                                                                                     000001                                                                                                                                                                               0000009
1                   00090002500028185325680      08702           2100000051325680100000000002N              01513256803227091500000000358750000000001N280315000000000000000110000000000000000000000000000000000000000000000100032077480823WELLINGTON PIMENTA DE JESUS             RUA PEDRO CAVASSAN, 509                             15520000Ref.:QUADRA E-04                                            000258    006                                                                                                                                                                        0000010
2APOS O VENCIMENTO, PAGAVEL SOMENTE NO BANCO BRADESCO.                                                                                                                                                                                                                                                                                                                        0090002500028185000513256801000259    23796656400000358750025090005132568000028180   23790.02500 90005.132569 80000.281800 6 65640000035875    27/09/2015    07/07/2015    0025090005132568000028180    006      0000011
1                   00090002500028185325681      08702           2100000051325681P00000000002N              01513256813227101500000000358750000000001N280315000000000000000110000000000000000000000000000000000000000000000100032077480823WELLINGTON PIMENTA DE JESUS             RUA PEDRO CAVASSAN, 509                             15520000Ref.:QUADRA E-04                                            000260    006                                                                                                                                                                        0000012
2APOS O VENCIMENTO, PAGAVEL SOMENTE NO BANCO BRADESCO.                                                                                                                                                                                                                                                                                                                        009000250002818500051325681P000261    23798659400000358750025090005132568100028180   23790.02500 90005.132569 81000.281808 8 65940000035875    27/10/2015    07/07/2015    0025090005132568100028180    006      0000013
1                   00090002500028185325682      08702           2100000051325682800000000002N              01513256823227111500000000358750000000001N280315000000000000000110000000000000000000000000000000000000000000000100032077480823WELLINGTON PIMENTA DE JESUS             RUA PEDRO CAVASSAN, 509                             15520000Ref.:QUADRA E-04                                            000262    006                                                                                                                                                                        0000014
2APOS O VENCIMENTO, PAGAVEL SOMENTE NO BANCO BRADESCO.                                                                                                                                                                                                                                                                                                                        0090002500028185000513256828000263    23793662500000358750025090005132568200028180   23790.02500 90005.132569 82000.281806 3 66250000035875    27/11/2015    07/07/2015    0025090005132568200028180    006      0000015
1                   00090002500028185325683      08702           2100000051325683600000000002N              01513256833227121500000000358750000000001N280315000000000000000110000000000000000000000000000000000000000000000100032077480823WELLINGTON PIMENTA DE JESUS             RUA PEDRO CAVASSAN, 509                             15520000Ref.:QUADRA E-04                                            000264    006                                                                                                                                                                        0000016
2APOS O VENCIMENTO, PAGAVEL SOMENTE NO BANCO BRADESCO.                                                                                                                                                                                                                                                                                                                        0090002500028185000513256836000265    23795665500000358750025090005132568300028180   23790.02500 90005.132569 83000.281804 5 66550000035875    27/12/2015    07/07/2015    0025090005132568300028180    006      0000017
1                   00090002500028185325684      08702           2100000051325684400000000002N              01513256843227011600000000358750000000001N280315000000000000000110000000000000000000000000000000000000000000000100032077480823WELLINGTON PIMENTA DE JESUS             RUA PEDRO CAVASSAN, 509                             15520000Ref.:QUADRA E-04                                            000266    006                                                                                                                                                                        0000018
2APOS O VENCIMENTO, PAGAVEL SOMENTE NO BANCO BRADESCO.                                                                                                                                                                                                                                                                                                                        0090002500028185000513256844000267    23792668600000358750025090005132568400028180   23790.02500 90005.132569 84000.281802 2 66860000035875    27/01/2016    07/07/2015    0025090005132568400028180    006      0000019
1                   00090002500028185325685      08702           2100000051325685200000000002N              01513256853227021600000000358750000000001N280315000000000000000110000000000000000000000000000000000000000000000100032077480823WELLINGTON PIMENTA DE JESUS             RUA PEDRO CAVASSAN, 509                             15520000Ref.:QUADRA E-04                                            000268    006                                                                                                                                                                        0000020
2APOS O VENCIMENTO, PAGAVEL SOMENTE NO BANCO BRADESCO.                                                                                                                                                                                                                                                                                                                        0090002500028185000513256852000269    23798671700000358750025090005132568500028180   23790.02500 90005.132569 85000.281809 8 67170000035875    27/02/2016    07/07/2015    0025090005132568500028180    006      0000021
9                                                                                                                                                                                                                                                                                                                                                                                                                                                                                                                                                                                              0000022
01REMESSA01COBRANCA       00000000000004732947AUX EMPREENDIMENTOS IMOBILIARI237BRADESCO       300315        MX0008876                                                                                                                                                                                                                                                                                     000001                                                                                                                                                                               0000023
1                   00090002500028185326419      08698           2100000055326419P00000000002N              01553264193230041500000000650000000000001N290315000000000000000210000000000000000000000000000000000000000000000100018449481880LUIS CARLOS DE OLIVEIRA                 RUA OSVALDO GRANDIZOLI , 5676                       15505118Ref.:QUADRA D-06                                            000178    008                                                                                                                                                                        0000024
2APOS O VENCIMENTO, PAGAVEL SOMENTE NO BANCO BRADESCO.                                                                                                                                                                                                                                                                                                                        009000250002818500055326419P000179    23792641400000650000025090005532641900028180   23790.02500 90005.532644 19000.281808 2 64140000065000    30/04/2015    07/07/2015    0025090005532641900028180    008      0000025
1                   00090002500028185326420      08698           2100000055326420300000000002N              01553264203230051500000000650000000000001N290315000000000000000210000000000000000000000000000000000000000000000100018449481880LUIS CARLOS DE OLIVEIRA                 RUA OSVALDO GRANDIZOLI , 5676                       15505118Ref.:QUADRA D-06                                            000180    008                                                                                                                                                                        0000026
2APOS O VENCIMENTO, PAGAVEL SOMENTE NO BANCO BRADESCO.                                                                                                                                                                                                                                                                                                                        0090002500028185000553264203000181    23791644400000650000025090005532642000028180   23790.02500 90005.532644 20000.281806 1 64440000065000    30/05/2015    07/07/2015    0025090005532642000028180    008      0000027
1                   00090002500028185326421      08698           2100000055326421100000000002N              01553264213230061500000000358750000000001N290315000000000000000110000000000000000000000000000000000000000000000100018449481880LUIS CARLOS DE OLIVEIRA                 RUA OSVALDO GRANDIZOLI , 5676                       15505118Ref.:QUADRA D-06                                            000182    008                                                                                                                                                                        0000028
2APOS O VENCIMENTO, PAGAVEL SOMENTE NO BANCO BRADESCO.                                                                                                                                                                                                                                                                                                                        0090002500028185000553264211000183    23791647500000358750025090005532642100028180   23790.02500 90005.532644 21000.281804 1 64750000035875    30/06/2015    07/07/2015    0025090005532642100028180    008      0000029
1                   00090002500028185326422      08698           2100000055326422P00000000002N              01553264223230071500000000358750000000001N290315000000000000000110000000000000000000000000000000000000000000000100018449481880LUIS CARLOS DE OLIVEIRA                 RUA OSVALDO GRANDIZOLI , 5676                       15505118Ref.:QUADRA D-06                                            000184    008                                                                                                                                                                        0000030
2APOS O VENCIMENTO, PAGAVEL SOMENTE NO BANCO BRADESCO.                                                                                                                                                                                                                                                                                                                        009000250002818500055326422P000185    23791650500000358750025090005532642200028180   23790.02500 90005.532644 22000.281802 1 65050000035875    30/07/2015    07/07/2015    0025090005532642200028180    008      0000031
1                   00090002500028185326423      08698           2100000055326423800000000002N              01553264233230081500000000358750000000001N290315000000000000000110000000000000000000000000000000000000000000000100018449481880LUIS CARLOS DE OLIVEIRA                 RUA OSVALDO GRANDIZOLI , 5676                       15505118Ref.:QUADRA D-06                                            000186    008                                                                                                                                                                        0000032
2APOS O VENCIMENTO, PAGAVEL SOMENTE NO BANCO BRADESCO.                                                                                                                                                                                                                                                                                                                        0090002500028185000553264238000187    23798653600000358750025090005532642300028180   23790.02500 90005.532644 23000.281800 8 65360000035875    30/08/2015    07/07/2015    0025090005532642300028180    008      0000033
1                   00090002500028185326424      08698           2100000055326424600000000002N              01553264243230091500000000358750000000001N290315000000000000000110000000000000000000000000000000000000000000000100018449481880LUIS CARLOS DE OLIVEIRA                 RUA OSVALDO GRANDIZOLI , 5676                       15505118Ref.:QUADRA D-06                                            000188    008                                                                                                                                                                        0000034
2APOS O VENCIMENTO, PAGAVEL SOMENTE NO BANCO BRADESCO.                                                                                                                                                                                                                                                                                                                        0090002500028185000553264246000189    23795656700000358750025090005532642400028180   23790.02500 90005.532644 24000.281808 5 65670000035875    30/09/2015    07/07/2015    0025090005532642400028180    008      0000035
1                   00090002500028185326425      08698           2100000055326425400000000002N              01553264253230101500000000358750000000001N290315000000000000000110000000000000000000000000000000000000000000000100018449481880LUIS CARLOS DE OLIVEIRA                 RUA OSVALDO GRANDIZOLI , 5676                       15505118Ref.:QUADRA D-06                                            000190    008                                                                                                                                                                        0000036
2APOS O VENCIMENTO, PAGAVEL SOMENTE NO BANCO BRADESCO.                                                                                                                                                                                                                                                                                                                        0090002500028185000553264254000191    23797659700000358750025090005532642500028180   23790.02500 90005.532644 25000.281805 7 65970000035875    30/10/2015    07/07/2015    0025090005532642500028180    008      0000037
1                   00090002500028185326426      08698           2100000055326426200000000002N              01553264263230111500000000358750000000001N290315000000000000000110000000000000000000000000000000000000000000000100018449481880LUIS CARLOS DE OLIVEIRA                 RUA OSVALDO GRANDIZOLI , 5676                       15505118Ref.:QUADRA D-06                                            000192    008                                                                                                                                                                        0000038
2APOS O VENCIMENTO, PAGAVEL SOMENTE NO BANCO BRADESCO.                                                                                                                                                                                                                                                                                                                        0090002500028185000553264262000193    23792662800000358750025090005532642600028180   23790.02500 90005.532644 26000.281803 2 66280000035875    30/11/2015    07/07/2015    0025090005532642600028180    008      0000039
100000000000000000000000000000000000000000000000000000000000000000000000000000000000000000000000000000000000000000000000000000000000000000000000000000000000000000000000000000000000000000000000000000000000000000000000000000000000000000000000000000000    008                                                                                                                                                                                                                                                                                                                               0000040
200000000000000000000000000000000000000000000000000000000000000000000000000000000000000000000000000000000000000000000000000000000000000000000000000000000000000000000000000000000000000000000000000000000000000000000000000000000000000000000000000000000    008                                                                                                                                                                                                                                                                                                                               0000041
9                                                                                                                                                                                                                                                                                                                                                                                                                                                                                                                                                                                              0000042
01REMESSA01COBRANCA       00000000000004732947AUX EMPREENDIMENTOS IMOBILIARI237BRADESCO       300315        MX0008876                                                                                                                                                                                                                                                                                     000001                                                                                                                                                                               0000043
1                   00090002500028185324986      08700           2100000042324986500000000002N              01423249863230041500000001075000000000001N280315000000000000000350000000000000000000000000000000000000000000000200010926736876MARCOS APARECIDO MAZIERI                RUA NICOLAU PIGNATARI, 3253                         15501376Ref.:QUADRA D-04                                            000222    009                                                                                                                                                                        0000044
2APOS O VENCIMENTO, PAGAVEL SOMENTE NO BANCO BRADESCO.                                                                                                                                                                                                                                                                                                                        0090002500028185000423249865000223    23797641400001075000025090004232498600028180   23790.02500 90004.232493 86000.281807 7 64140000107500    30/04/2015    07/07/2015    0025090004232498600028180    009      0000045
1                   00090002500028185324987      08700           2100000042324987300000000002N              01423249873230051500000001075000000000001N280315000000000000000350000000000000000000000000000000000000000000000200010926736876MARCOS APARECIDO MAZIERI                RUA NICOLAU PIGNATARI, 3253                         15501376Ref.:QUADRA D-04                                            000224    009                                                                                                                                                                        0000046
2APOS O VENCIMENTO, PAGAVEL SOMENTE NO BANCO BRADESCO.                                                                                                                                                                                                                                                                                                                        0090002500028185000423249873000225    23799644400001075000025090004232498700028180   23790.02500 90004.232493 87000.281805 9 64440000107500    30/05/2015    07/07/2015    0025090004232498700028180    009      0000047
1                   00090002500028185324988      08700           2100000042324988100000000002N              01423249883230061500000001075000000000001N280315000000000000000350000000000000000000000000000000000000000000000200010926736876MARCOS APARECIDO MAZIERI                RUA NICOLAU PIGNATARI, 3253                         15501376Ref.:QUADRA D-04                                            000226    009                                                                                                                                                                        0000048
2APOS O VENCIMENTO, PAGAVEL SOMENTE NO BANCO BRADESCO.                                                                                                                                                                                                                                                                                                                        0090002500028185000423249881000227    23796647500001075000025090004232498800028180   23790.02500 90004.232493 88000.281803 6 64750000107500    30/06/2015    07/07/2015    0025090004232498800028180    009      0000049
1                   00090002500028185324989      08700           2100000042324989P00000000002N              01423249893230071500000000537310000000001N280315000000000000000170000000000000000000000000000000000000000000000200010926736876MARCOS APARECIDO MAZIERI                RUA NICOLAU PIGNATARI, 3253                         15501376Ref.:QUADRA D-04                                            000228    009                                                                                                                                                                        0000050
2APOS O VENCIMENTO, PAGAVEL SOMENTE NO BANCO BRADESCO.                                                                                                                                                                                                                                                                                                                        009000250002818500042324989P000229    23791650500000537310025090004232498900028180   23790.02500 90004.232493 89000.281801 1 65050000053731    30/07/2015    07/07/2015    0025090004232498900028180    009      0000051
1                   00090002500028185324990      08700           2100000042324990300000000002N              01423249903230081500000000537310000000001N280315000000000000000170000000000000000000000000000000000000000000000200010926736876MARCOS APARECIDO MAZIERI                RUA NICOLAU PIGNATARI, 3253                         15501376Ref.:QUADRA D-04                                            000230    009                                                                                                                                                                        0000052
2APOS O VENCIMENTO, PAGAVEL SOMENTE NO BANCO BRADESCO.                                                                                                                                                                                                                                                                                                                        0090002500028185000423249903000231    23793653600000537310025090004232499000028180   23790.02500 90004.232493 90000.281809 3 65360000053731    30/08/2015    07/07/2015    0025090004232499000028180    009      0000053
1                   00090002500028185324991      08700           2100000042324991100000000002N              01423249913230091500000000537310000000001N280315000000000000000170000000000000000000000000000000000000000000000200010926736876MARCOS APARECIDO MAZIERI                RUA NICOLAU PIGNATARI, 3253                         15501376Ref.:QUADRA D-04                                            000232    009                                                                                                                                                                        0000054
2APOS O VENCIMENTO, PAGAVEL SOMENTE NO BANCO BRADESCO.                                                                                                                                                                                                                                                                                                                        0090002500028185000423249911000233    23791656700000537310025090004232499100028180   23790.02500 90004.232493 91000.281807 1 65670000053731    30/09/2015    07/07/2015    0025090004232499100028180    009      0000055
1                   00090002500028185324992      08700           2100000042324992P00000000002N              01423249923230101500000000537310000000001N280315000000000000000170000000000000000000000000000000000000000000000200010926736876MARCOS APARECIDO MAZIERI                RUA NICOLAU PIGNATARI, 3253                         15501376Ref.:QUADRA D-04                                            000234    009                                                                                                                                                                        0000056
2APOS O VENCIMENTO, PAGAVEL SOMENTE NO BANCO BRADESCO.                                                                                                                                                                                                                                                                                                                        009000250002818500042324992P000235    23792659700000537310025090004232499200028180   23790.02500 90004.232493 92000.281805 2 65970000053731    30/10/2015    07/07/2015    0025090004232499200028180    009      0000057
1                   00090002500028185324993      08700           2100000042324993800000000002N              01423249933230111500000000537310000000001N280315000000000000000170000000000000000000000000000000000000000000000200010926736876MARCOS APARECIDO MAZIERI                RUA NICOLAU PIGNATARI, 3253                         15501376Ref.:QUADRA D-04                                            000236    009                                                                                                                                                                        0000058
2APOS O VENCIMENTO, PAGAVEL SOMENTE NO BANCO BRADESCO.                                                                                                                                                                                                                                                                                                                        0090002500028185000423249938000237    23798662800000537310025090004232499300028180   23790.02500 90004.232493 93000.281803 8 66280000053731    30/11/2015    07/07/2015    0025090004232499300028180    009      0000059
1                   00090002500028185324994      08700           2100000042324994600000000002N              01423249943230121500000000537310000000001N280315000000000000000170000000000000000000000000000000000000000000000200010926736876MARCOS APARECIDO MAZIERI                RUA NICOLAU PIGNATARI, 3253                         15501376Ref.:QUADRA D-04                                            000238    009                                                                                                                                                                        0000060
2APOS O VENCIMENTO, PAGAVEL SOMENTE NO BANCO BRADESCO.                                                                                                                                                                                                                                                                                                                        0090002500028185000423249946000239    23791665800000537310025090004232499400028180   23790.02500 90004.232493 94000.281801 1 66580000053731    30/12/2015    07/07/2015    0025090004232499400028180    009      0000061
9                                                                                                                                                                                                                                                                                                                                                                                                                                                                                                                                                                                              0000062
01REMESSA01COBRANCA       00000000000004732947AUX EMPREENDIMENTOS IMOBILIARI237BRADESCO       300315        MX0008876                                                                                                                                                                                                                                                                                     000001                                                                                                                                                                               0000063
1                   00090002500028185327578      08690           2100000065327578400000000002N              01653275783210051500000001075000000000001N300315000000000000000350000000000000000000000000000000000000000000000100007068277837ELIZABETE APARECIDA ANUNCIO             RUA ARLINDO RODRIGUES DA MATA, 1694                 15615000Ref.:QUADRA E-29                                            000024    009                                                                                                                                                                        0000064
2APOS O VENCIMENTO, PAGAVEL SOMENTE NO BANCO BRADESCO.                                                                                                                                                                                                                                                                                                                        0090002500028185000653275784000025    23793642400001075000025090006532757800028180   23790.02500 90006.532759 78000.281804 3 64240000107500    10/05/2015    07/07/2015    0025090006532757800028180    009      0000065
1                   00090002500028185327579      08690           2100000065327579200000000002N              01653275793210061500000001075000000000001N300315000000000000000350000000000000000000000000000000000000000000000100007068277837ELIZABETE APARECIDA ANUNCIO             RUA ARLINDO RODRIGUES DA MATA, 1694                 15615000Ref.:QUADRA E-29                                            000026    009                                                                                                                                                                        0000066
2APOS O VENCIMENTO, PAGAVEL SOMENTE NO BANCO BRADESCO.                                                                                                                                                                                                                                                                                                                        0090002500028185000653275792000027    23791645500001075000025090006532757900028180   23790.02500 90006.532759 79000.281802 1 64550000107500    10/06/2015    07/07/2015    0025090006532757900028180    009      0000067
1                   00090002500028185327580      08690           2100000065327580600000000002N              01653275803210071500000001075000000000001N300315000000000000000350000000000000000000000000000000000000000000000100007068277837ELIZABETE APARECIDA ANUNCIO             RUA ARLINDO RODRIGUES DA MATA, 1694                 15615000Ref.:QUADRA E-29                                            000028    009                                                                                                                                                                        0000068
2APOS O VENCIMENTO, PAGAVEL SOMENTE NO BANCO BRADESCO.                                                                                                                                                                                                                                                                                                                        0090002500028185000653275806000029    23798648500001075000025090006532758000028180   23790.02500 90006.532759 80000.281800 8 64850000107500    10/07/2015    07/07/2015    0025090006532758000028180    009      0000069
1                   00090002500028185327581      08690           2100000065327581400000000002N              01653275813210081500000000459380000000001N300315000000000000000150000000000000000000000000000000000000000000000100007068277837ELIZABETE APARECIDA ANUNCIO             RUA ARLINDO RODRIGUES DA MATA, 1694                 15615000Ref.:QUADRA E-29                                            000030    009                                                                                                                                                                        0000070
2APOS O VENCIMENTO, PAGAVEL SOMENTE NO BANCO BRADESCO.                                                                                                                                                                                                                                                                                                                        0090002500028185000653275814000031    23795651600000459380025090006532758100028180   23790.02500 90006.532759 81000.281808 5 65160000045938    10/08/2015    07/07/2015    0025090006532758100028180    009      0000071
1                   00090002500028185327582      08690           2100000065327582200000000002N              01653275823210091500000000459380000000001N300315000000000000000150000000000000000000000000000000000000000000000100007068277837ELIZABETE APARECIDA ANUNCIO             RUA ARLINDO RODRIGUES DA MATA, 1694                 15615000Ref.:QUADRA E-29                                            000032    009                                                                                                                                                                        0000072
2APOS O VENCIMENTO, PAGAVEL SOMENTE NO BANCO BRADESCO.                                                                                                                                                                                                                                                                                                                        0090002500028185000653275822000033    23792654700000459380025090006532758200028180   23790.02500 90006.532759 82000.281806 2 65470000045938    10/09/2015    07/07/2015    0025090006532758200028180    009      0000073
1                   00090002500028185327583      08690           2100000065327583000000000002N              01653275833210101500000000459380000000001N300315000000000000000150000000000000000000000000000000000000000000000100007068277837ELIZABETE APARECIDA ANUNCIO             RUA ARLINDO RODRIGUES DA MATA, 1694                 15615000Ref.:QUADRA E-29                                            000034    009                                                                                                                                                                        0000074
2APOS O VENCIMENTO, PAGAVEL SOMENTE NO BANCO BRADESCO.                                                                                                                                                                                                                                                                                                                        0090002500028185000653275830000035    23794657700000459380025090006532758300028180   23790.02500 90006.532759 83000.281804 4 65770000045938    10/10/2015    07/07/2015    0025090006532758300028180    009      0000075
1                   00090002500028185327584      08690           2100000065327584900000000002N              01653275843210111500000000459380000000001N300315000000000000000150000000000000000000000000000000000000000000000100007068277837ELIZABETE APARECIDA ANUNCIO             RUA ARLINDO RODRIGUES DA MATA, 1694                 15615000Ref.:QUADRA E-29                                            000036    009                                                                                                                                                                        0000076
2APOS O VENCIMENTO, PAGAVEL SOMENTE NO BANCO BRADESCO.                                                                                                                                                                                                                                                                                                                        0090002500028185000653275849000037    23791660800000459380025090006532758400028180   23790.02500 90006.532759 84000.281802 1 66080000045938    10/11/2015    07/07/2015    0025090006532758400028180    009      0000077
1                   00090002500028185327585      08690           2100000065327585700000000002N              01653275853210121500000000459380000000001N300315000000000000000150000000000000000000000000000000000000000000000100007068277837ELIZABETE APARECIDA ANUNCIO             RUA ARLINDO RODRIGUES DA MATA, 1694                 15615000Ref.:QUADRA E-29                                            000038    009                                                                                                                                                                        0000078
2APOS O VENCIMENTO, PAGAVEL SOMENTE NO BANCO BRADESCO.                                                                                                                                                                                                                                                                                                                        0090002500028185000653275857000039    23791663800000459380025090006532758500028180   23790.02500 90006.532759 85000.281809 1 66380000045938    10/12/2015    07/07/2015    0025090006532758500028180    009      0000079
1                   00090002500028185327586      08690           2100000065327586500000000002N              01653275863210011600000000459380000000001N300315000000000000000150000000000000000000000000000000000000000000000100007068277837ELIZABETE APARECIDA ANUNCIO             RUA ARLINDO RODRIGUES DA MATA, 1694                 15615000Ref.:QUADRA E-29                                            000040    009                                                                                                                                                                        0000080
2APOS O VENCIMENTO, PAGAVEL SOMENTE NO BANCO BRADESCO.                                                                                                                                                                                                                                                                                                                        0090002500028185000653275865000041    23799666900000459380025090006532758600028180   23790.02500 90006.532759 86000.281807 9 66690000045938    10/01/2016    07/07/2015    0025090006532758600028180    009      0000081
9                                                                                                                                                                                                                                                                                                                                                                                                                                                                                                                                                                                              0000082
01REMESSA01COBRANCA       00000000000004732947AUX EMPREENDIMENTOS IMOBILIARI237BRADESCO       300315        MX0008876                                                                                                                                                                                                                                                                                     000001                                                                                                                                                                               0000083
1                   00090002500028185326050      08697           2100000053326050300000000002N              01533260503225041500000001075000000000001N280315000000000000000350000000000000000000000000000000000000000000000100009989516847LUCIANO MISIAGIA                        RUA EDUARDO JOAQUIM NEVES, 603                      15506102Ref.:QUADRA D-19                                            000160    009                                                                                                                                                                        0000084
2APOS O VENCIMENTO, PAGAVEL SOMENTE NO BANCO BRADESCO.                                                                                                                                                                                                                                                                                                                        0090002500028185000533260503000161    23797640900001075000025090005332605000028180   23790.02500 90005.332607 50000.281803 7 64090000107500    25/04/2015    07/07/2015    0025090005332605000028180    009      0000085
1                   00090002500028185326051      08697           2100000053326051100000000002N              01533260513225051500000001075000000000001N280315000000000000000350000000000000000000000000000000000000000000000100009989516847LUCIANO MISIAGIA                        RUA EDUARDO JOAQUIM NEVES, 603                      15506102Ref.:QUADRA D-19                                            000162    009                                                                                                                                                                        0000086
2APOS O VENCIMENTO, PAGAVEL SOMENTE NO BANCO BRADESCO.                                                                                                                                                                                                                                                                                                                        0090002500028185000533260511000163    23799643900001075000025090005332605100028180   23790.02500 90005.332607 51000.281801 9 64390000107500    25/05/2015    07/07/2015    0025090005332605100028180    009      0000087
1                   00090002500028185326052      08697           2100000053326052P00000000002N              01533260523225061500000001075000000000001N280315000000000000000350000000000000000000000000000000000000000000000100009989516847LUCIANO MISIAGIA                        RUA EDUARDO JOAQUIM NEVES, 603                      15506102Ref.:QUADRA D-19                                            000164    009                                                                                                                                                                        0000088
2APOS O VENCIMENTO, PAGAVEL SOMENTE NO BANCO BRADESCO.                                                                                                                                                                                                                                                                                                                        009000250002818500053326052P000165    23796647000001075000025090005332605200028180   23790.02500 90005.332607 52000.281809 6 64700000107500    25/06/2015    07/07/2015    0025090005332605200028180    009      0000089
1                   00090002500028185326053      08697           2100000053326053800000000002N              01533260533225071500000000358750000000001N280315000000000000000110000000000000000000000000000000000000000000000100009989516847LUCIANO MISIAGIA                        RUA EDUARDO JOAQUIM NEVES, 603                      15506102Ref.:QUADRA D-19                                            000166    009                                                                                                                                                                        0000090
2APOS O VENCIMENTO, PAGAVEL SOMENTE NO BANCO BRADESCO.                                                                                                                                                                                                                                                                                                                        0090002500028185000533260538000167    23792650000000358750025090005332605300028180   23790.02500 90005.332607 53000.281807 2 65000000035875    25/07/2015    07/07/2015    0025090005332605300028180    009      0000091
1                   00090002500028185326054      08697           2100000053326054600000000002N              01533260543225081500000000358750000000001N280315000000000000000110000000000000000000000000000000000000000000000100009989516847LUCIANO MISIAGIA                        RUA EDUARDO JOAQUIM NEVES, 603                      15506102Ref.:QUADRA D-19                                            000168    009                                                                                                                                                                        0000092
2APOS O VENCIMENTO, PAGAVEL SOMENTE NO BANCO BRADESCO.                                                                                                                                                                                                                                                                                                                        0090002500028185000533260546000169    23791653100000358750025090005332605400028180   23790.02500 90005.332607 54000.281805 1 65310000035875    25/08/2015    07/07/2015    0025090005332605400028180    009      0000093
1                   00090002500028185326055      08697           2100000053326055400000000002N              01533260553225091500000000358750000000001N280315000000000000000110000000000000000000000000000000000000000000000100009989516847LUCIANO MISIAGIA                        RUA EDUARDO JOAQUIM NEVES, 603                      15506102Ref.:QUADRA D-19                                            000170    009                                                                                                                                                                        0000094
2APOS O VENCIMENTO, PAGAVEL SOMENTE NO BANCO BRADESCO.                                                                                                                                                                                                                                                                                                                        0090002500028185000533260554000171    23797656200000358750025090005332605500028180   23790.02500 90005.332607 55000.281802 7 65620000035875    25/09/2015    07/07/2015    0025090005332605500028180    009      0000095
1                   00090002500028185326056      08697           2100000053326056200000000002N              01533260563225101500000000358750000000001N280315000000000000000110000000000000000000000000000000000000000000000100009989516847LUCIANO MISIAGIA                        RUA EDUARDO JOAQUIM NEVES, 603                      15506102Ref.:QUADRA D-19                                            000172    009                                                                                                                                                                        0000096
2APOS O VENCIMENTO, PAGAVEL SOMENTE NO BANCO BRADESCO.                                                                                                                                                                                                                                                                                                                        0090002500028185000533260562000173    23799659200000358750025090005332605600028180   23790.02500 90005.332607 56000.281800 9 65920000035875    25/10/2015    07/07/2015    0025090005332605600028180    009      0000097
1                   00090002500028185326057      08697           2100000053326057000000000002N              01533260573225111500000000358750000000001N280315000000000000000110000000000000000000000000000000000000000000000100009989516847LUCIANO MISIAGIA                        RUA EDUARDO JOAQUIM NEVES, 603                      15506102Ref.:QUADRA D-19                                            000174    009                                                                                                                                                                        0000098
2APOS O VENCIMENTO, PAGAVEL SOMENTE NO BANCO BRADESCO.                                                                                                                                                                                                                                                                                                                        0090002500028185000533260570000175    23794662300000358750025090005332605700028180   23790.02500 90005.332607 57000.281808 4 66230000035875    25/11/2015    07/07/2015    0025090005332605700028180    009      0000099
1                   00090002500028185326058      08697           2100000053326058900000000002N              01533260583225121500000000358750000000001N280315000000000000000110000000000000000000000000000000000000000000000100009989516847LUCIANO MISIAGIA                        RUA EDUARDO JOAQUIM NEVES, 603                      15506102Ref.:QUADRA D-19                                            000176    009                                                                                                                                                                        0000100
2APOS O VENCIMENTO, PAGAVEL SOMENTE NO BANCO BRADESCO.                                                                                                                                                                                                                                                                                                                        0090002500028185000533260589000177    23796665300000358750025090005332605800028180   23790.02500 90005.332607 58000.281806 6 66530000035875    25/12/2015    07/07/2015    0025090005332605800028180    009      0000101
9                                                                                                                                                                                                                                                                                                                                                                                                                                                                                                                                                                                              0000102
01REMESSA01COBRANCA       00000000000004732947AUX EMPREENDIMENTOS IMOBILIARI237BRADESCO       300315        MX0008876                                                                                                                                                                                                                                                                                     000001                                                                                                                                                                               0000103
1                   00090002500028185324428      08696           2100000135324428P00000000002N              01135324428327041500000000450000000000001N250315000000000000000140000000000000000000000000000000000000000000000200031664390804JULIO CESAR BARBOSA DE SOUZA             RUA EUGENIO BUOSI 3-05                             15520000Ref.:QUADRA E-19                                            000142    009                                                                                                                                                                        0000104
2APOS O VENCIMENTO, PAGAVEL SOMENTE NO BANCO BRADESCO.                                                                                                                                                                                                                                                                                                                        009000250002818500135324428P000143    23791641100000450000025090013532442800028180   23790.02500 90013.532446 28000.281809 1 64110000045000    27/04/2015    07/07/2015    0025090013532442800028180    009      0000105
1                   00090002500028185324429      08696           2100000135324429800000000002N              01135324429327051500000000425000000000001N250315000000000000000140000000000000000000000000000000000000000000000200031664390804JULIO CESAR BARBOSA DE SOUZA             RUA EUGENIO BUOSI 3-05                             15520000Ref.:QUADRA E-19                                            000144    009                                                                                                                                                                        0000106
2APOS O VENCIMENTO, PAGAVEL SOMENTE NO BANCO BRADESCO.                                                                                                                                                                                                                                                                                                                        0090002500028185001353244298000145    23797644100000425000025090013532442900028180   23790.02500 90013.532446 29000.281807 7 64410000042500    27/05/2015    07/07/2015    0025090013532442900028180    009      0000107
1                   00090002500028185324430      08696           2100000135324430100000000002N              01135324430327061500000000425000000000001N250315000000000000000140000000000000000000000000000000000000000000000200031664390804JULIO CESAR BARBOSA DE SOUZA             RUA EUGENIO BUOSI 3-05                             15520000Ref.:QUADRA E-19                                            000146    009                                                                                                                                                                        0000108
2APOS O VENCIMENTO, PAGAVEL SOMENTE NO BANCO BRADESCO.                                                                                                                                                                                                                                                                                                                        0090002500028185001353244301000147    23791647200000425000025090013532443000028180   23790.02500 90013.532446 30000.281805 1 64720000042500    27/06/2015    07/07/2015    0025090013532443000028180    009      0000109
1                   00090002500028185324431      08696           2100000135324431P00000000002N              01135324431310081500000000459380000000001N250315000000000000000150000000000000000000000000000000000000000000000200031664390804JULIO CESAR BARBOSA DE SOUZA             RUA EUGENIO BUOSI 3-05                             15520000Ref.:QUADRA E-19                                            000148    009                                                                                                                                                                        0000110
2APOS O VENCIMENTO, PAGAVEL SOMENTE NO BANCO BRADESCO.                                                                                                                                                                                                                                                                                                                        009000250002818500135324431P000149    23799651600000459380025090013532443100028180   23790.02500 90013.532446 31000.281803 9 65160000045938    10/08/2015    07/07/2015    0025090013532443100028180    009      0000111
1                   00090002500028185324432      08696           2100000135324432800000000002N              01135324432310091500000000459380000000001N250315000000000000000150000000000000000000000000000000000000000000000200031664390804JULIO CESAR BARBOSA DE SOUZA             RUA EUGENIO BUOSI 3-05                             15520000Ref.:QUADRA E-19                                            000150    009                                                                                                                                                                        0000112
2APOS O VENCIMENTO, PAGAVEL SOMENTE NO BANCO BRADESCO.                                                                                                                                                                                                                                                                                                                        0090002500028185001353244328000151    23796654700000459380025090013532443200028180   23790.02500 90013.532446 32000.281801 6 65470000045938    10/09/2015    07/07/2015    0025090013532443200028180    009      0000113
1                   00090002500028185324433      08696           2100000135324433600000000002N              01135324433310101500000000459380000000001N250315000000000000000150000000000000000000000000000000000000000000000200031664390804JULIO CESAR BARBOSA DE SOUZA             RUA EUGENIO BUOSI 3-05                             15520000Ref.:QUADRA E-19                                            000152    009                                                                                                                                                                        0000114
2APOS O VENCIMENTO, PAGAVEL SOMENTE NO BANCO BRADESCO.                                                                                                                                                                                                                                                                                                                        0090002500028185001353244336000153    23798657700000459380025090013532443300028180   23790.02500 90013.532446 33000.281809 8 65770000045938    10/10/2015    07/07/2015    0025090013532443300028180    009      0000115
1                   00090002500028185324434      08696           2100000135324434400000000002N              01135324434310111500000000459380000000001N250315000000000000000150000000000000000000000000000000000000000000000200031664390804JULIO CESAR BARBOSA DE SOUZA             RUA EUGENIO BUOSI 3-05                             15520000Ref.:QUADRA E-19                                            000154    009                                                                                                                                                                        0000116
2APOS O VENCIMENTO, PAGAVEL SOMENTE NO BANCO BRADESCO.                                                                                                                                                                                                                                                                                                                        0090002500028185001353244344000155    23793660800000459380025090013532443400028180   23790.02500 90013.532446 34000.281807 3 66080000045938    10/11/2015    07/07/2015    0025090013532443400028180    009      0000117
1                   00090002500028185324435      08696           2100000135324435200000000002N              01135324435310121500000000459380000000001N250315000000000000000150000000000000000000000000000000000000000000000200031664390804JULIO CESAR BARBOSA DE SOUZA             RUA EUGENIO BUOSI 3-05                             15520000Ref.:QUADRA E-19                                            000156    009                                                                                                                                                                        0000118
2APOS O VENCIMENTO, PAGAVEL SOMENTE NO BANCO BRADESCO.                                                                                                                                                                                                                                                                                                                        0090002500028185001353244352000157    23795663800000459380025090013532443500028180   23790.02500 90013.532446 35000.281804 5 66380000045938    10/12/2015    07/07/2015    0025090013532443500028180    009      0000119
1                   00090002500028185324436      08696           2100000135324436000000000002N              01135324436310011600000000459380000000001N250315000000000000000150000000000000000000000000000000000000000000000200031664390804JULIO CESAR BARBOSA DE SOUZA             RUA EUGENIO BUOSI 3-05                             15520000Ref.:QUADRA E-19                                            000158    009                                                                                                                                                                        0000120
2APOS O VENCIMENTO, PAGAVEL SOMENTE NO BANCO BRADESCO.                                                                                                                                                                                                                                                                                                                        0090002500028185001353244360000159    23792666900000459380025090013532443600028180   23790.02500 90013.532446 36000.281802 2 66690000045938    10/01/2016    07/07/2015    0025090013532443600028180    009      0000121
9                                                                                                                                                                                                                                                                                                                                                                                                                                                                                                                                                                                              0000122
01REMESSA01COBRANCA       00000000000004732947AUX EMPREENDIMENTOS IMOBILIARI237BRADESCO       300315        MX0008876                                                                                                                                                                                                                                                                                     000001                                                                                                                                                                               0000123
1                   00090002500028185327394      08695           2100000138327394200000000002N              01138327394330041500000001075000000000001N300315000000000000000350000000000000000000000000000000000000000000000200038739055825JAIR LOPES FILHO                        RUA GUAPORE, 3653                                   15500086Ref.:QUADRA E-23                                            000124    009                                                                                                                                                                        0000124
2APOS O VENCIMENTO, PAGAVEL SOMENTE NO BANCO BRADESCO.                                                                                                                                                                                                                                                                                                                        0090002500028185001383273942000125    23799641400001075000025090013832739400028180   23790.02500 90013.832739 94000.281801 9 64140000107500    30/04/2015    07/07/2015    0025090013832739400028180    009      0000125
1                   00090002500028185327395      08695           2100000138327395000000000002N              01138327395330051500000001075000000000001N300315000000000000000350000000000000000000000000000000000000000000000200038739055825JAIR LOPES FILHO                        RUA GUAPORE, 3653                                   15500086Ref.:QUADRA E-23                                            000126    009                                                                                                                                                                        0000126
2APOS O VENCIMENTO, PAGAVEL SOMENTE NO BANCO BRADESCO.                                                                                                                                                                                                                                                                                                                        0090002500028185001383273950000127    23791644400001075000025090013832739500028180   23790.02500 90013.832739 95000.281808 1 64440000107500    30/05/2015    07/07/2015    0025090013832739500028180    009      0000127
1                   00090002500028185327396      08695           2100000138327396900000000002N              01138327396330061500000001075000000000001N300315000000000000000350000000000000000000000000000000000000000000000200038739055825JAIR LOPES FILHO                        RUA GUAPORE, 3653                                   15500086Ref.:QUADRA E-23                                            000128    009                                                                                                                                                                        0000128
2APOS O VENCIMENTO, PAGAVEL SOMENTE NO BANCO BRADESCO.                                                                                                                                                                                                                                                                                                                        0090002500028185001383273969000129    23798647500001075000025090013832739600028180   23790.02500 90013.832739 96000.281806 8 64750000107500    30/06/2015    07/07/2015    0025090013832739600028180    009      0000129
1                   00090002500028185327397      08695           2100000138327397700000000002N              01138327397330071500000000358750000000001N300315000000000000000110000000000000000000000000000000000000000000000200038739055825JAIR LOPES FILHO                        RUA GUAPORE, 3653                                   15500086Ref.:QUADRA E-23                                            000130    009                                                                                                                                                                        0000130
2APOS O VENCIMENTO, PAGAVEL SOMENTE NO BANCO BRADESCO.                                                                                                                                                                                                                                                                                                                        0090002500028185001383273977000131    23794650500000358750025090013832739700028180   23790.02500 90013.832739 97000.281804 4 65050000035875    30/07/2015    07/07/2015    0025090013832739700028180    009      0000131
1                   00090002500028185327398      08695           2100000138327398500000000002N              01138327398330081500000000358750000000001N300315000000000000000110000000000000000000000000000000000000000000000200038739055825JAIR LOPES FILHO                        RUA GUAPORE, 3653                                   15500086Ref.:QUADRA E-23                                            000132    009                                                                                                                                                                        0000132
2APOS O VENCIMENTO, PAGAVEL SOMENTE NO BANCO BRADESCO.                                                                                                                                                                                                                                                                                                                        0090002500028185001383273985000133    23791653600000358750025090013832739800028180   23790.02500 90013.832739 98000.281802 1 65360000035875    30/08/2015    07/07/2015    0025090013832739800028180    009      0000133
1                   00090002500028185327399      08695           2100000138327399300000000002N              01138327399330091500000000358750000000001N300315000000000000000110000000000000000000000000000000000000000000000200038739055825JAIR LOPES FILHO                        RUA GUAPORE, 3653                                   15500086Ref.:QUADRA E-23                                            000134    009                                                                                                                                                                        0000134
2APOS O VENCIMENTO, PAGAVEL SOMENTE NO BANCO BRADESCO.                                                                                                                                                                                                                                                                                                                        0090002500028185001383273993000135    23799656700000358750025090013832739900028180   23790.02500 90013.832739 99000.281800 9 65670000035875    30/09/2015    07/07/2015    0025090013832739900028180    009      0000135
1                   00090002500028185327400      08695           2100000138327400000000000002N              01138327400330101500000000358750000000001N300315000000000000000110000000000000000000000000000000000000000000000200038739055825JAIR LOPES FILHO                        RUA GUAPORE, 3653                                   15500086Ref.:QUADRA E-23                                            000136    009                                                                                                                                                                        0000136
2APOS O VENCIMENTO, PAGAVEL SOMENTE NO BANCO BRADESCO.                                                                                                                                                                                                                                                                                                                        0090002500028185001383274000000137    23791659700000358750025090013832740000028180   23790.02500 90013.832747 00000.281808 1 65970000035875    30/10/2015    07/07/2015    0025090013832740000028180    009      0000137
1                   00090002500028185327401      08695           2100000138327401900000000002N              01138327401330111500000000358750000000001N300315000000000000000110000000000000000000000000000000000000000000000200038739055825JAIR LOPES FILHO                        RUA GUAPORE, 3653                                   15500086Ref.:QUADRA E-23                                            000138    009                                                                                                                                                                        0000138
2APOS O VENCIMENTO, PAGAVEL SOMENTE NO BANCO BRADESCO.                                                                                                                                                                                                                                                                                                                        0090002500028185001383274019000139    23795662800000358750025090013832740100028180   23790.02500 90013.832747 01000.281806 5 66280000035875    30/11/2015    07/07/2015    0025090013832740100028180    009      0000139
1                   00090002500028185327402      08695           2100000138327402700000000002N              01138327402330121500000000358750000000001N300315000000000000000110000000000000000000000000000000000000000000000200038739055825JAIR LOPES FILHO                        RUA GUAPORE, 3653                                   15500086Ref.:QUADRA E-23                                            000140    009                                                                                                                                                                        0000140
2APOS O VENCIMENTO, PAGAVEL SOMENTE NO BANCO BRADESCO.                                                                                                                                                                                                                                                                                                                        0090002500028185001383274027000141    23797665800000358750025090013832740200028180   23790.02500 90013.832747 02000.281804 7 66580000035875    30/12/2015    07/07/2015    0025090013832740200028180    009      0000141
9                                                                                                                                                                                                                                                                                                                                                                                                                                                                                                                                                                                              0000142
01REMESSA01COBRANCA       00000000000004732947AUX EMPREENDIMENTOS IMOBILIARI237BRADESCO       300315        MX0008876                                                                                                                                                                                                                                                                                     000001                                                                                                                                                                               0000143
1                   00090002500028185325086      08701           2100000043325086100000000002N              01433250863210051500000001075000000000001N280315000000000000000350000000000000000000000000000000000000000000000100034741687899MONICA APARECIDA GARCIA CELESTINO       RUA MIGUEL PUERTA GONALVES, 1727                   15502339Ref.:QUADRA E-24                                            000240    009                                                                                                                                                                        0000144
2APOS O VENCIMENTO, PAGAVEL SOMENTE NO BANCO BRADESCO.                                                                                                                                                                                                                                                                                                                        0090002500028185000433250861000241    23792642400001075000025090004332508600028180   23790.02500 90004.332509 86000.281807 2 64240000107500    10/05/2015    07/07/2015    0025090004332508600028180    009      0000145
1                   00090002500028185325087      08701           2100000043325087P00000000002N              01433250873210061500000001075000000000001N280315000000000000000350000000000000000000000000000000000000000000000100034741687899MONICA APARECIDA GARCIA CELESTINO       RUA MIGUEL PUERTA GONALVES, 1727                   15502339Ref.:QUADRA E-24                                            000242    009                                                                                                                                                                        0000146
2APOS O VENCIMENTO, PAGAVEL SOMENTE NO BANCO BRADESCO.                                                                                                                                                                                                                                                                                                                        009000250002818500043325087P000243    23791645500001075000025090004332508700028180   23790.02500 90004.332509 87000.281805 1 64550000107500    10/06/2015    07/07/2015    0025090004332508700028180    009      0000147
1                   00090002500028185325088      08701           2100000043325088800000000002N              01433250883210071500000001075000000000001N280315000000000000000350000000000000000000000000000000000000000000000100034741687899MONICA APARECIDA GARCIA CELESTINO       RUA MIGUEL PUERTA GONALVES, 1727                   15502339Ref.:QUADRA E-24                                            000244    009                                                                                                                                                                        0000148
2APOS O VENCIMENTO, PAGAVEL SOMENTE NO BANCO BRADESCO.                                                                                                                                                                                                                                                                                                                        0090002500028185000433250888000245    23791648500001075000025090004332508800028180   23790.02500 90004.332509 88000.281803 1 64850000107500    10/07/2015    07/07/2015    0025090004332508800028180    009      0000149
1                   00090002500028185325089      08701           2100000043325089600000000002N              01433250893210081500000000537310000000001N280315000000000000000170000000000000000000000000000000000000000000000100034741687899MONICA APARECIDA GARCIA CELESTINO       RUA MIGUEL PUERTA GONALVES, 1727                   15502339Ref.:QUADRA E-24                                            000246    009                                                                                                                                                                        0000150
2APOS O VENCIMENTO, PAGAVEL SOMENTE NO BANCO BRADESCO.                                                                                                                                                                                                                                                                                                                        0090002500028185000433250896000247    23791651600000537310025090004332508900028180   23790.02500 90004.332509 89000.281801 1 65160000053731    10/08/2015    07/07/2015    0025090004332508900028180    009      0000151
1                   00090002500028185325090      08701           2100000043325090P00000000002N              01433250903210091500000000537310000000001N280315000000000000000170000000000000000000000000000000000000000000000100034741687899MONICA APARECIDA GARCIA CELESTINO       RUA MIGUEL PUERTA GONALVES, 1727                   15502339Ref.:QUADRA E-24                                            000248    009                                                                                                                                                                        0000152
2APOS O VENCIMENTO, PAGAVEL SOMENTE NO BANCO BRADESCO.                                                                                                                                                                                                                                                                                                                        009000250002818500043325090P000249    23794654700000537310025090004332509000028180   23790.02500 90004.332509 90000.281809 4 65470000053731    10/09/2015    07/07/2015    0025090004332509000028180    009      0000153
1                   00090002500028185325091      08701           2100000043325091800000000002N              01433250913210101500000000537310000000001N280315000000000000000170000000000000000000000000000000000000000000000100034741687899MONICA APARECIDA GARCIA CELESTINO       RUA MIGUEL PUERTA GONALVES, 1727                   15502339Ref.:QUADRA E-24                                            000250    009                                                                                                                                                                        0000154
2APOS O VENCIMENTO, PAGAVEL SOMENTE NO BANCO BRADESCO.                                                                                                                                                                                                                                                                                                                        0090002500028185000433250918000251    23796657700000537310025090004332509100028180   23790.02500 90004.332509 91000.281807 6 65770000053731    10/10/2015    07/07/2015    0025090004332509100028180    009      0000155
1                   00090002500028185325092      08701           2100000043325092600000000002N              01433250923210111500000000537310000000001N280315000000000000000170000000000000000000000000000000000000000000000100034741687899MONICA APARECIDA GARCIA CELESTINO       RUA MIGUEL PUERTA GONALVES, 1727                   15502339Ref.:QUADRA E-24                                            000252    009                                                                                                                                                                        0000156
2APOS O VENCIMENTO, PAGAVEL SOMENTE NO BANCO BRADESCO.                                                                                                                                                                                                                                                                                                                        0090002500028185000433250926000253    23791660800000537310025090004332509200028180   23790.02500 90004.332509 92000.281805 1 66080000053731    10/11/2015    07/07/2015    0025090004332509200028180    009      0000157
1                   00090002500028185325093      08701           2100000043325093400000000002N              01433250933210121500000000537310000000001N280315000000000000000170000000000000000000000000000000000000000000000100034741687899MONICA APARECIDA GARCIA CELESTINO       RUA MIGUEL PUERTA GONALVES, 1727                   15502339Ref.:QUADRA E-24                                            000254    009                                                                                                                                                                        0000158
2APOS O VENCIMENTO, PAGAVEL SOMENTE NO BANCO BRADESCO.                                                                                                                                                                                                                                                                                                                        0090002500028185000433250934000255    23793663800000537310025090004332509300028180   23790.02500 90004.332509 93000.281803 3 66380000053731    10/12/2015    07/07/2015    0025090004332509300028180    009      0000159
1                   00090002500028185325094      08701           2100000043325094200000000002N              01433250943210011600000000537310000000001N280315000000000000000170000000000000000000000000000000000000000000000100034741687899MONICA APARECIDA GARCIA CELESTINO       RUA MIGUEL PUERTA GONALVES, 1727                   15502339Ref.:QUADRA E-24                                            000256    009                                                                                                                                                                        0000160
2APOS O VENCIMENTO, PAGAVEL SOMENTE NO BANCO BRADESCO.                                                                                                                                                                                                                                                                                                                        0090002500028185000433250942000257    23791666900000537310025090004332509400028180   23790.02500 90004.332509 94000.281801 1 66690000053731    10/01/2016    07/07/2015    0025090004332509400028180    009      0000161
9                                                                                                                                                                                                                                                                                                                                                                                                                                                                                                                                                                                              0000162
01REMESSA01COBRANCA       00000000000004732947AUX EMPREENDIMENTOS IMOBILIARI237BRADESCO       300315        MX0008876                                                                                                                                                                                                                                                                                     000001                                                                                                                                                                               0000163
1                   00090002500028185324736      08694           2100000040324736P00000000002N              01403247363215051500000000940000000000001N280315000000000000000310000000000000000000000000000000000000000000000200008612796890IRACY SANTOS DE AZEVEDO                 RUA MATO GROSSO 4861                                15505185Ref.:QUADRA J-10                                            000104    010                                                                                                                                                                        0000164
2APOS O VENCIMENTO, PAGAVEL SOMENTE NO BANCO BRADESCO.                                                                                                                                                                                                                                                                                                                        009000250002818500040324736P000105    23793642900000940000025090004032473600028180   23790.02500 90004.032471 36000.281802 3 64290000094000    15/05/2015    07/07/2015    0025090004032473600028180    010      0000165
1                   00090002500028185324737      08694           2100000040324737800000000002N              01403247373215061500000000940000000000001N280315000000000000000310000000000000000000000000000000000000000000000200008612796890IRACY SANTOS DE AZEVEDO                 RUA MATO GROSSO 4861                                15505185Ref.:QUADRA J-10                                            000106    010                                                                                                                                                                        0000166
2APOS O VENCIMENTO, PAGAVEL SOMENTE NO BANCO BRADESCO.                                                                                                                                                                                                                                                                                                                        0090002500028185000403247378000107    23791646000000940000025090004032473700028180   23790.02500 90004.032471 37000.281800 1 64600000094000    15/06/2015    07/07/2015    0025090004032473700028180    010      0000167
1                   00090002500028185324738      08694           2100000040324738600000000002N              01403247383215071500000000940000000000001N280315000000000000000310000000000000000000000000000000000000000000000200008612796890IRACY SANTOS DE AZEVEDO                 RUA MATO GROSSO 4861                                15505185Ref.:QUADRA J-10                                            000108    010                                                                                                                                                                        0000168
2APOS O VENCIMENTO, PAGAVEL SOMENTE NO BANCO BRADESCO.                                                                                                                                                                                                                                                                                                                        0090002500028185000403247386000109    23792649000000940000025090004032473800028180   23790.02500 90004.032471 38000.281808 2 64900000094000    15/07/2015    07/07/2015    0025090004032473800028180    010      0000169
1                   00090002500028185324739      08694           2100000040324739400000000002N              01403247393215081500000000940000000000001N280315000000000000000310000000000000000000000000000000000000000000000200008612796890IRACY SANTOS DE AZEVEDO                 RUA MATO GROSSO 4861                                15505185Ref.:QUADRA J-10                                            000110    010                                                                                                                                                                        0000170
2APOS O VENCIMENTO, PAGAVEL SOMENTE NO BANCO BRADESCO.                                                                                                                                                                                                                                                                                                                        0090002500028185000403247394000111    23798652100000940000025090004032473900028180   23790.02500 90004.032471 39000.281806 8 65210000094000    15/08/2015    07/07/2015    0025090004032473900028180    010      0000171
